{
  "abi": [
    {
      "inputs": [
        {
          "internalType": "uint256",
          "name": "initialSupply",
          "type": "uint256"
        }
      ],
      "stateMutability": "nonpayable",
      "type": "constructor"
    },
    {
      "anonymous": false,
      "inputs": [
        {
          "indexed": true,
          "internalType": "address",
          "name": "owner",
          "type": "address"
        },
        {
          "indexed": true,
          "internalType": "address",
          "name": "spender",
          "type": "address"
        },
        {
          "indexed": false,
          "internalType": "uint256",
          "name": "value",
          "type": "uint256"
        }
      ],
      "name": "Approval",
      "type": "event"
    },
    {
      "anonymous": false,
      "inputs": [
        {
          "indexed": true,
          "internalType": "address",
          "name": "from",
          "type": "address"
        },
        {
          "indexed": true,
          "internalType": "address",
          "name": "to",
          "type": "address"
        },
        {
          "indexed": false,
          "internalType": "uint256",
          "name": "value",
          "type": "uint256"
        }
      ],
      "name": "Transfer",
      "type": "event"
    },
    {
      "inputs": [
        {
          "internalType": "address",
          "name": "_account",
          "type": "address"
        }
      ],
      "name": "BALANCE_OF",
      "outputs": [
        {
          "internalType": "uint256[2]",
          "name": "",
          "type": "uint256[2]"
        }
      ],
      "stateMutability": "view",
      "type": "function"
    },
    {
      "inputs": [
        {
          "internalType": "address",
          "name": "_to",
          "type": "address"
        },
        {
          "components": [
            {
              "components": [
                {
                  "internalType": "uint256",
                  "name": "X",
                  "type": "uint256"
                },
                {
                  "internalType": "uint256",
                  "name": "Y",
                  "type": "uint256"
                }
              ],
              "internalType": "struct Pairing.G1Point",
              "name": "a",
              "type": "tuple"
            },
            {
              "components": [
                {
                  "internalType": "uint256[2]",
                  "name": "X",
                  "type": "uint256[2]"
                },
                {
                  "internalType": "uint256[2]",
                  "name": "Y",
                  "type": "uint256[2]"
                }
              ],
              "internalType": "struct Pairing.G2Point",
              "name": "b",
              "type": "tuple"
            },
            {
              "components": [
                {
                  "internalType": "uint256",
                  "name": "X",
                  "type": "uint256"
                },
                {
                  "internalType": "uint256",
                  "name": "Y",
                  "type": "uint256"
                }
              ],
              "internalType": "struct Pairing.G1Point",
              "name": "c",
              "type": "tuple"
            }
          ],
          "internalType": "struct Verifier.Proof",
          "name": "proofSender",
          "type": "tuple"
        },
        {
          "components": [
            {
              "components": [
                {
                  "internalType": "uint256",
                  "name": "X",
                  "type": "uint256"
                },
                {
                  "internalType": "uint256",
                  "name": "Y",
                  "type": "uint256"
                }
              ],
              "internalType": "struct Pairing.G1Point",
              "name": "a",
              "type": "tuple"
            },
            {
              "components": [
                {
                  "internalType": "uint256[2]",
                  "name": "X",
                  "type": "uint256[2]"
                },
                {
                  "internalType": "uint256[2]",
                  "name": "Y",
                  "type": "uint256[2]"
                }
              ],
              "internalType": "struct Pairing.G2Point",
              "name": "b",
              "type": "tuple"
            },
            {
              "components": [
                {
                  "internalType": "uint256",
                  "name": "X",
                  "type": "uint256"
                },
                {
                  "internalType": "uint256",
                  "name": "Y",
                  "type": "uint256"
                }
              ],
              "internalType": "struct Pairing.G1Point",
              "name": "c",
              "type": "tuple"
            }
          ],
          "internalType": "struct Verifier.Proof",
          "name": "proofReceiver",
          "type": "tuple"
        },
        {
          "internalType": "uint256",
          "name": "hashSenderBalanceAfter_1",
          "type": "uint256"
        },
        {
          "internalType": "uint256",
          "name": "hashSenderBalanceAfter_2",
          "type": "uint256"
        },
        {
          "internalType": "uint256",
          "name": "hashValue_1",
          "type": "uint256"
        },
        {
          "internalType": "uint256",
          "name": "hashValue_2",
          "type": "uint256"
        },
        {
          "internalType": "uint256",
          "name": "hashReceiverBalanceAfter_1",
          "type": "uint256"
        },
        {
          "internalType": "uint256",
          "name": "hashReceiverBalanceAfter_2",
          "type": "uint256"
        },
        {
          "internalType": "uint256",
          "name": "boo",
          "type": "uint256"
        }
      ],
      "name": "TRANFER",
      "outputs": [],
      "stateMutability": "nonpayable",
      "type": "function"
    },
    {
      "inputs": [
        {
          "internalType": "address",
          "name": "owner",
          "type": "address"
        },
        {
          "internalType": "address",
          "name": "spender",
          "type": "address"
        }
      ],
      "name": "allowance",
      "outputs": [
        {
          "internalType": "uint256",
          "name": "",
          "type": "uint256"
        }
      ],
      "stateMutability": "view",
      "type": "function"
    },
    {
      "inputs": [
        {
          "internalType": "address",
          "name": "spender",
          "type": "address"
        },
        {
          "internalType": "uint256",
          "name": "amount",
          "type": "uint256"
        }
      ],
      "name": "approve",
      "outputs": [
        {
          "internalType": "bool",
          "name": "",
          "type": "bool"
        }
      ],
      "stateMutability": "nonpayable",
      "type": "function"
    },
    {
      "inputs": [
        {
          "internalType": "address",
          "name": "account",
          "type": "address"
        }
      ],
      "name": "balanceOf",
      "outputs": [
        {
          "internalType": "uint256",
          "name": "",
          "type": "uint256"
        }
      ],
      "stateMutability": "view",
      "type": "function"
    },
    {
      "inputs": [],
      "name": "decimals",
      "outputs": [
        {
          "internalType": "uint8",
          "name": "",
          "type": "uint8"
        }
      ],
      "stateMutability": "view",
      "type": "function"
    },
    {
      "inputs": [
        {
          "internalType": "address",
          "name": "spender",
          "type": "address"
        },
        {
          "internalType": "uint256",
          "name": "subtractedValue",
          "type": "uint256"
        }
      ],
      "name": "decreaseAllowance",
      "outputs": [
        {
          "internalType": "bool",
          "name": "",
          "type": "bool"
        }
      ],
      "stateMutability": "nonpayable",
      "type": "function"
    },
    {
      "inputs": [
        {
          "internalType": "address",
          "name": "spender",
          "type": "address"
        },
        {
          "internalType": "uint256",
          "name": "addedValue",
          "type": "uint256"
        }
      ],
      "name": "increaseAllowance",
      "outputs": [
        {
          "internalType": "bool",
          "name": "",
          "type": "bool"
        }
      ],
      "stateMutability": "nonpayable",
      "type": "function"
    },
    {
      "inputs": [],
      "name": "name",
      "outputs": [
        {
          "internalType": "string",
          "name": "",
          "type": "string"
        }
      ],
      "stateMutability": "view",
      "type": "function"
    },
    {
      "inputs": [],
      "name": "symbol",
      "outputs": [
        {
          "internalType": "string",
          "name": "",
          "type": "string"
        }
      ],
      "stateMutability": "view",
      "type": "function"
    },
    {
      "inputs": [],
      "name": "totalSupply",
      "outputs": [
        {
          "internalType": "uint256",
          "name": "",
          "type": "uint256"
        }
      ],
      "stateMutability": "view",
      "type": "function"
    },
    {
      "inputs": [
        {
          "internalType": "address",
          "name": "to",
          "type": "address"
        },
        {
          "internalType": "uint256",
          "name": "amount",
          "type": "uint256"
        }
      ],
      "name": "transfer",
      "outputs": [
        {
          "internalType": "bool",
          "name": "",
          "type": "bool"
        }
      ],
      "stateMutability": "nonpayable",
      "type": "function"
    },
    {
      "inputs": [
        {
          "internalType": "address",
          "name": "from",
          "type": "address"
        },
        {
          "internalType": "address",
          "name": "to",
          "type": "address"
        },
        {
          "internalType": "uint256",
          "name": "amount",
          "type": "uint256"
        }
      ],
      "name": "transferFrom",
      "outputs": [
        {
          "internalType": "bool",
          "name": "",
          "type": "bool"
        }
      ],
      "stateMutability": "nonpayable",
      "type": "function"
    },
    {
      "inputs": [
        {
          "components": [
            {
              "components": [
                {
                  "internalType": "uint256",
                  "name": "X",
                  "type": "uint256"
                },
                {
                  "internalType": "uint256",
                  "name": "Y",
                  "type": "uint256"
                }
              ],
              "internalType": "struct Pairing.G1Point",
              "name": "a",
              "type": "tuple"
            },
            {
              "components": [
                {
                  "internalType": "uint256[2]",
                  "name": "X",
                  "type": "uint256[2]"
                },
                {
                  "internalType": "uint256[2]",
                  "name": "Y",
                  "type": "uint256[2]"
                }
              ],
              "internalType": "struct Pairing.G2Point",
              "name": "b",
              "type": "tuple"
            },
            {
              "components": [
                {
                  "internalType": "uint256",
                  "name": "X",
                  "type": "uint256"
                },
                {
                  "internalType": "uint256",
                  "name": "Y",
                  "type": "uint256"
                }
              ],
              "internalType": "struct Pairing.G1Point",
              "name": "c",
              "type": "tuple"
            }
          ],
          "internalType": "struct Verifier.Proof",
          "name": "proof",
          "type": "tuple"
        },
        {
          "internalType": "uint256[8]",
          "name": "input",
          "type": "uint256[8]"
        }
      ],
      "name": "verifyTx",
      "outputs": [
        {
          "internalType": "bool",
          "name": "r",
          "type": "bool"
        }
      ],
      "stateMutability": "view",
      "type": "function"
    }
  ],
  "bytecode": "60806040523480156200001157600080fd5b5060405162002379380380620023798339810160408190526200003491620002ca565b60408051808201825260058152642a27a5a2a760d91b602080830191825283518085019094526002845261535360f01b9084015281519192916200007b91600391620001e8565b50805162000091906004906020840190620001e8565b505050620000a633826200010060201b60201c565b6040805180820182526fc8fc40b1f343a09e9db9bb14cd9dc5de81526fe02d440335ef062482ffeacc730ef427602080830191909152336000908152600590915291909120620000f891600262000277565b505062000348565b6001600160a01b0382166200015b5760405162461bcd60e51b815260206004820152601f60248201527f45524332303a206d696e7420746f20746865207a65726f206164647265737300604482015260640160405180910390fd5b80600260008282546200016f9190620002e4565b90915550506001600160a01b038216600090815260208190526040812080548392906200019e908490620002e4565b90915550506040518181526001600160a01b038316906000907fddf252ad1be2c89b69c2b068fc378daa952ba7f163c4a11628f55a4df523b3ef9060200160405180910390a35050565b828054620001f6906200030b565b90600052602060002090601f0160209004810192826200021a576000855562000265565b82601f106200023557805160ff191683800117855562000265565b8280016001018555821562000265579182015b828111156200026557825182559160200191906001019062000248565b5062000273929150620002b3565b5090565b826002810192821562000265579160200282015b828111156200026557825182906001600160801b03169055916020019190600101906200028b565b5b80821115620002735760008155600101620002b4565b600060208284031215620002dd57600080fd5b5051919050565b600082198211156200030657634e487b7160e01b600052601160045260246000fd5b500190565b600181811c908216806200032057607f821691505b602082108114156200034257634e487b7160e01b600052602260045260246000fd5b50919050565b61202180620003586000396000f3fe608060405234801561001057600080fd5b50600436106100ea5760003560e01c8063395093511161008c578063a457c2d711610066578063a457c2d7146101dd578063a9059cbb146101f0578063dd62ed3e14610203578063f1942cd11461023c57600080fd5b8063395093511461019957806370a08231146101ac57806395d89b41146101d557600080fd5b806318160ddd116100c857806318160ddd146101455780631fc0bf281461015757806323b872dd14610177578063313ce5671461018a57600080fd5b806301a62aed146100ef57806306fdde0314610104578063095ea7b314610122575b600080fd5b6101026100fd366004611c96565b61024f565b005b61010c61050b565b6040516101199190611d22565b60405180910390f35b610135610130366004611d77565b61059d565b6040519015158152602001610119565b6002545b604051908152602001610119565b61016a610165366004611da1565b6105b7565b6040516101199190611dc3565b610135610185366004611df4565b610608565b60405160128152602001610119565b6101356101a7366004611d77565b61062c565b6101496101ba366004611da1565b6001600160a01b031660009081526020819052604090205490565b61010c61066b565b6101356101eb366004611d77565b61067a565b6101356101fe366004611d77565b610711565b610149610211366004611e30565b6001600160a01b03918216600090815260016020908152604080832093909416825291909152205490565b61013561024a366004611e63565b61071f565b336000908152600560205260408082208151808301928390528d939290919060029082845b81548152602001906001019080831161027457505050506001600160a01b038416600090815260056020526040902054919250501580156102ce57506001600160a01b038216600090815260056020526040812060010154145b1561032e576040805180820182526ff5a5fd42d16a20302798ef6ed309979b81526f43003d2320d9f0e8ea9831a92759fb4b6020808301919091526001600160a01b038516600090815260059091529190912061032c916002611968565b505b6001600160a01b038c166000908152600560205260408082208151808301928390529160029082845b81548152602001906001019080831161035757505050505090506000604051806101000160405280600081526020018460006002811061039957610399611ef9565b60200201518152602001846001600281106103b6576103b6611ef9565b602002015181526020018c81526020018b81526020018a81526020018981526020018681525090506000604051806101000160405280600181526020018460006002811061040657610406611ef9565b602002015181526020018460016002811061042357610423611ef9565b602002015181526020018981526020018881526020018b81526020018a815260200187815250905060006104578f8461071f565b905060006104658f8461071f565b90508180156104715750805b156104f85760405180604001604052808f81526020018e81525060056000336001600160a01b03166001600160a01b031681526020019081526020016000209060026104be9291906119ba565b506040805180820182528b815260208082018c90526001600160a01b038a1660009081526005909152919091206104f69160026119ba565b505b5050505050505050505050505050505050565b60606003805461051a90611f0f565b80601f016020809104026020016040519081016040528092919081815260200182805461054690611f0f565b80156105935780601f1061056857610100808354040283529160200191610593565b820191906000526020600020905b81548152906001019060200180831161057657829003601f168201915b5050505050905090565b6000336105ab8185856107bc565b60019150505b92915050565b6105bf6119e8565b6001600160a01b038216600090815260056020526040908190208151808301928390529160029082845b8154815260200190600101908083116105e95750505050509050919050565b6000336106168582856108e0565b610621858585610972565b506001949350505050565b3360008181526001602090815260408083206001600160a01b03871684529091528120549091906105ab9082908690610666908790611f60565b6107bc565b60606004805461051a90611f0f565b3360008181526001602090815260408083206001600160a01b0387168452909152812054909190838110156107045760405162461bcd60e51b815260206004820152602560248201527f45524332303a2064656372656173656420616c6c6f77616e63652062656c6f77604482015264207a65726f60d81b60648201526084015b60405180910390fd5b61062182868684036107bc565b6000336105ab818585610972565b6040805160088082526101208201909252600091829190602082016101008036833701905050905060005b60088110156107995783816008811061076557610765611ef9565b602002015182828151811061077c5761077c611ef9565b60209081029190910101528061079181611f78565b91505061074a565b506107a48185610b40565b6107b25760019150506105b1565b60009150506105b1565b6001600160a01b03831661081e5760405162461bcd60e51b8152602060048201526024808201527f45524332303a20617070726f76652066726f6d20746865207a65726f206164646044820152637265737360e01b60648201526084016106fb565b6001600160a01b03821661087f5760405162461bcd60e51b815260206004820152602260248201527f45524332303a20617070726f766520746f20746865207a65726f206164647265604482015261737360f01b60648201526084016106fb565b6001600160a01b0383811660008181526001602090815260408083209487168084529482529182902085905590518481527f8c5be1e5ebec7d5bd14f71427d1e84f3dd0314c0f7b2291e5b200ac8c7c3b925910160405180910390a3505050565b6001600160a01b03838116600090815260016020908152604080832093861683529290522054600019811461096c578181101561095f5760405162461bcd60e51b815260206004820152601d60248201527f45524332303a20696e73756666696369656e7420616c6c6f77616e636500000060448201526064016106fb565b61096c84848484036107bc565b50505050565b6001600160a01b0383166109d65760405162461bcd60e51b815260206004820152602560248201527f45524332303a207472616e736665722066726f6d20746865207a65726f206164604482015264647265737360d81b60648201526084016106fb565b6001600160a01b038216610a385760405162461bcd60e51b815260206004820152602360248201527f45524332303a207472616e7366657220746f20746865207a65726f206164647260448201526265737360e81b60648201526084016106fb565b6001600160a01b03831660009081526020819052604090205481811015610ab05760405162461bcd60e51b815260206004820152602660248201527f45524332303a207472616e7366657220616d6f756e7420657863656564732062604482015265616c616e636560d01b60648201526084016106fb565b6001600160a01b03808516600090815260208190526040808220858503905591851681529081208054849290610ae7908490611f60565b92505081905550826001600160a01b0316846001600160a01b03167fddf252ad1be2c89b69c2b068fc378daa952ba7f163c4a11628f55a4df523b3ef84604051610b3391815260200190565b60405180910390a361096c565b60007f30644e72e131a029b85045b68181585d2833e84879b9709143e1f593f000000181610b6c610cc3565b905080608001515185516001610b829190611f60565b14610b8c57600080fd5b604080518082019091526000808252602082018190525b8651811015610c3a5783878281518110610bbf57610bbf611ef9565b602002602001015110610bd157600080fd5b610c2682610c218560800151846001610bea9190611f60565b81518110610bfa57610bfa611ef9565b60200260200101518a8581518110610c1457610c14611ef9565b60200260200101516113a0565b611404565b915080610c3281611f78565b915050610ba3565b50610c63818360800151600081518110610c5657610c56611ef9565b6020026020010151611404565b9050610ca785600001518660200151610c7b8461145e565b8560400151610c8d8a6040015161145e565b60608801518851610c9d9061145e565b89602001516114fd565b610cb757600193505050506105b1565b50600095945050505050565b610ccb611a06565b6040805180820182527f06f6a9234f37b768ed85404cb0e1545ce3f74ab4f6ac123f0195c7ee888dcdee81527f2547046e40cdb7225efacf433452eee46703bd7b34d615ad0aebfa6a2b8f2e976020808301919091529083528151608080820184527f17db565cfc86adaaedb90e183bb9de4978f9ac2cc25317899df2b76fcb26b5c38285019081527f26932b0217d1919cdccd0509e9ebeb8c2e62eaa646ff3eaee8cb337255198c98606080850191909152908352845180860186527f28b5996e4439774fae5eedf820a7648c8e4a762ea907c5411ec4a5cbfd104b7781527f2121442a2453a1d927b4493a42c06528b72908731d39f13a865d54a0803769dc818601528385015285840192909252835180820185527f1e5505a4e704260e7051ad2cc6fd538bbf5020ac66824641af5ee05fb19d78fe8186019081527f2e2ed78451d277c6b52a9e02f745990123eb529028e637c3acafc23e16cf0e1d828501528152845180860186527f2b4cd9bb8751afaf2f6a46e66ae6f59d9233338766646ba9ed2a7509b4a4220f81527f221ed174c7be03a5c2e1ac3f220c54dba4c5ab20b356bab44eba1d5482d8a792818601528185015285850152835190810184527f2ca48ba98112207b2034004925f442e2b03426d99b72c22a861e9e7aa66d7ccf8185019081527f01293639ff81e8a13ccfca65f99d2cf1d8c211f05c8b2092d971b5b0dbb520c4828401528152835180850185527f15ae9a012ee94d8d19170faa2973336c8a32e978919b114c1c416117ccbc2c2481527f073f7bded8ec941d931e559d46e32064befd8506274f491dc33f09a4ad27dc68818501528184015290840152815160098082526101408201909352919082015b6040805180820190915260008082526020820152815260200190600190039081610f4757505060808201908152604080518082019091527f07834ceb6ae05574a2e81ba48669cec245b20310bf971330007ff321377fd27a81527f28debdeadc1f38e58516baefba67a91b60c9f86f2cb49a434de82840cb8cdb7a602082015290518051600090610fda57610fda611ef9565b602002602001018190525060405180604001604052807f194f7ebfe8a86ae4188e9045fd47f133f93a3a49eea93d7cc57e2d96fc29bea981526020017f02d102a4e456d37365ce5f1a079acb34d7e35cc60fb428a7e293c36e8882d146815250816080015160018151811061105157611051611ef9565b602002602001018190525060405180604001604052807f1594faa95ac67b59c1961f3ef62e8fbf9949ffca39a471ddd325633e2a68a31381526020017f01d4ac07d85e3e69b4d647147f5b75b0c1513cd778b09b49ec577f31574ed6c181525081608001516002815181106110c8576110c8611ef9565b602002602001018190525060405180604001604052807f0f09986445bb2d34e8b8638be962994a615af5b0d07b75561c27d549e7bf2cfa81526020017f141a0cdb3adf0cbfbb11d8eda48f458db640ad177f0360b128294b768479f682815250816080015160038151811061113f5761113f611ef9565b602002602001018190525060405180604001604052807f09cb55c9319ccc4cc148e6f5da8b1015ade818216177798c22af714e8e83a43081526020017f1073c9189f271abe6ccb93bd67a934d8eac725371980b01b236571113d5c469681525081608001516004815181106111b6576111b6611ef9565b602002602001018190525060405180604001604052807f2d5aacfd8311b26b8b649d3c879732cecb68aae180f8c5180a50b55455eeb97a81526020017f104ce9133e0aa0d6c87490cc6f63deef93119021de69e4e5cc9c6e1d6564ffe2815250816080015160058151811061122d5761122d611ef9565b602002602001018190525060405180604001604052807f0ca6e9aaa79dfe30b7431d32b766ddb57ca2fb5cb886376d8708d3ed159ab31381526020017f03f384e39cfa0f68a88f7e5cd17641f470163c0729f5725bfbb0e7ccbf73141c81525081608001516006815181106112a4576112a4611ef9565b602002602001018190525060405180604001604052807f131074b4d6f338451859165de81ed0e2dc4c6d985bf54940af13b3a258a0010f81526020017f1798edd77563f61521ce0aa7c3c77c605c1c646126983a249088424e29270b4c815250816080015160078151811061131b5761131b611ef9565b602002602001018190525060405180604001604052807f2ba65d1fc956fa23b052321b437122cef3f0b893cd5b07e40348c410146b52ea81526020017f16f3fd9b943b6b559727c3d1404e828a3f50444f4013b307127643646ee00d4f815250816080015160088151811061139257611392611ef9565b602002602001018190525090565b60408051808201909152600080825260208201526113bc611a57565b835181526020808501519082015260408101839052600060608360808460076107d05a03fa90508080156113ef576113f1565bfe5b50806113fc57600080fd5b505092915050565b6040805180820190915260008082526020820152611420611a75565b8351815260208085015181830152835160408301528301516060808301919091526000908360c08460066107d05a03fa90508080156113ef576113f1565b604080518082019091526000808252602082015281517f30644e72e131a029b85045b68181585d97816a916871ca8d3c208c16d87cfd47901580156114a557506020830151155b156114c55750506040805180820190915260008082526020820152919050565b6040518060400160405280846000015181526020018285602001516114ea9190611f93565b6114f49084611fb5565b90529392505050565b60408051600480825260a08201909252600091829190816020015b604080518082019091526000808252602082015281526020019060019003908161151857505060408051600480825260a0820190925291925060009190602082015b611562611a93565b81526020019060019003908161155a5790505090508a8260008151811061158b5761158b611ef9565b602002602001018190525088826001815181106115aa576115aa611ef9565b602002602001018190525086826002815181106115c9576115c9611ef9565b602002602001018190525084826003815181106115e8576115e8611ef9565b6020026020010181905250898160008151811061160757611607611ef9565b6020026020010181905250878160018151811061162657611626611ef9565b6020026020010181905250858160028151811061164557611645611ef9565b6020026020010181905250838160038151811061166457611664611ef9565b60200260200101819052506116798282611688565b9b9a5050505050505050505050565b6000815183511461169857600080fd5b825160006116a7826006611fcc565b905060008167ffffffffffffffff8111156116c4576116c4611b07565b6040519080825280602002602001820160405280156116ed578160200160208202803683370190505b50905060005b838110156119285786818151811061170d5761170d611ef9565b602002602001015160000151828260066117279190611fcc565b611732906000611f60565b8151811061174257611742611ef9565b60200260200101818152505086818151811061176057611760611ef9565b6020026020010151602001518282600661177a9190611fcc565b611785906001611f60565b8151811061179557611795611ef9565b6020026020010181815250508581815181106117b3576117b3611ef9565b602090810291909101810151510151826117ce836006611fcc565b6117d9906002611f60565b815181106117e9576117e9611ef9565b60200260200101818152505085818151811061180757611807611ef9565b6020908102919091010151515182611820836006611fcc565b61182b906003611f60565b8151811061183b5761183b611ef9565b60200260200101818152505085818151811061185957611859611ef9565b60200260200101516020015160016002811061187757611877611ef9565b602002015182611888836006611fcc565b611893906004611f60565b815181106118a3576118a3611ef9565b6020026020010181815250508581815181106118c1576118c1611ef9565b6020026020010151602001516000600281106118df576118df611ef9565b6020020151826118f0836006611fcc565b6118fb906005611f60565b8151811061190b5761190b611ef9565b60209081029190910101528061192081611f78565b9150506116f3565b50611931611ab8565b6000602082602086026020860160086107d05a03fa90508080156113ef57508061195a57600080fd5b505115159695505050505050565b82600281019282156119aa579160200282015b828111156119aa57825182906fffffffffffffffffffffffffffffffff1690559160200191906001019061197b565b506119b6929150611ad6565b5090565b82600281019282156119aa579160200282015b828111156119aa5782518255916020019190600101906119cd565b60405180604001604052806002906020820280368337509192915050565b6040805160e08101909152600060a0820181815260c0830191909152815260208101611a30611a93565b8152602001611a3d611a93565b8152602001611a4a611a93565b8152602001606081525090565b60405180606001604052806003906020820280368337509192915050565b60405180608001604052806004906020820280368337509192915050565b6040518060400160405280611aa66119e8565b8152602001611ab36119e8565b905290565b60405180602001604052806001906020820280368337509192915050565b5b808211156119b65760008155600101611ad7565b80356001600160a01b0381168114611b0257600080fd5b919050565b634e487b7160e01b600052604160045260246000fd5b600060408284031215611b2f57600080fd5b6040516040810181811067ffffffffffffffff82111715611b5257611b52611b07565b604052823581526020928301359281019290925250919050565b600082601f830112611b7d57600080fd5b6040516040810181811067ffffffffffffffff82111715611ba057611ba0611b07565b8060405250806040840185811115611bb757600080fd5b845b81811015611bd1578035835260209283019201611bb9565b509195945050505050565b6000818303610100811215611bf057600080fd5b604080516060810167ffffffffffffffff8282108183111715611c1557611c15611b07565b818452829550611c258888611b1d565b83526080603f1986011215611c3957600080fd5b8351945083850191508482108183111715611c5657611c56611b07565b508252611c6586868401611b6c565b8352611c748660808701611b6c565b6020840152826020820152611c8c8660c08701611b1d565b9101525092915050565b6000806000806000806000806000806103008b8d031215611cb657600080fd5b611cbf8b611aeb565b9950611cce8c60208d01611bdc565b9850611cde8c6101208d01611bdc565b999c989b509899610220810135995061024081013598610260820135985061028082013597506102a082013596506102c082013595506102e0909101359350915050565b600060208083528351808285015260005b81811015611d4f57858101830151858201604001528201611d33565b81811115611d61576000604083870101525b50601f01601f1916929092016040019392505050565b60008060408385031215611d8a57600080fd5b611d9383611aeb565b946020939093013593505050565b600060208284031215611db357600080fd5b611dbc82611aeb565b9392505050565b60408101818360005b6002811015611deb578151835260209283019290910190600101611dcc565b50505092915050565b600080600060608486031215611e0957600080fd5b611e1284611aeb565b9250611e2060208501611aeb565b9150604084013590509250925092565b60008060408385031215611e4357600080fd5b611e4c83611aeb565b9150611e5a60208401611aeb565b90509250929050565b600080610200808486031215611e7857600080fd5b611e828585611bdc565b92506101008561011f860112611e9757600080fd5b60405181810181811067ffffffffffffffff82111715611eb957611eb9611b07565b604052918501918087841115611ece57600080fd5b918601915b83831015611eeb578235815260209283019201611ed3565b508093505050509250929050565b634e487b7160e01b600052603260045260246000fd5b600181811c90821680611f2357607f821691505b60208210811415611f4457634e487b7160e01b600052602260045260246000fd5b50919050565b634e487b7160e01b600052601160045260246000fd5b60008219821115611f7357611f73611f4a565b500190565b6000600019821415611f8c57611f8c611f4a565b5060010190565b600082611fb057634e487b7160e01b600052601260045260246000fd5b500690565b600082821015611fc757611fc7611f4a565b500390565b6000816000190483118215151615611fe657611fe6611f4a565b50029056fea26469706673582212204ba71fa32a671c2889584a74460f2eea85b2d1cb93395c747214dc9b3dcb7d1764736f6c634300080b0033",
  "bytecodeSha1": "c58ce0dedd834f41e03a4ea409539e43acf62b2a",
  "compiler": {
    "evm_version": "istanbul",
    "optimizer": {
      "enabled": true,
      "runs": 200
    },
    "version": "0.8.11+commit.d7f03943"
  },
  "contractName": "Confidential",
  "language": "Solidity",
  "natspec": {
    "kind": "dev",
    "methods": {
      "allowance(address,address)": {
        "details": "See {IERC20-allowance}."
      },
      "approve(address,uint256)": {
        "details": "See {IERC20-approve}. NOTE: If `amount` is the maximum `uint256`, the allowance is not updated on `transferFrom`. This is semantically equivalent to an infinite approval. Requirements: - `spender` cannot be the zero address."
      },
      "balanceOf(address)": {
        "details": "See {IERC20-balanceOf}."
      },
      "decimals()": {
        "details": "Returns the number of decimals used to get its user representation. For example, if `decimals` equals `2`, a balance of `505` tokens should be displayed to a user as `5.05` (`505 / 10 ** 2`). Tokens usually opt for a value of 18, imitating the relationship between Ether and Wei. This is the value {ERC20} uses, unless this function is overridden; NOTE: This information is only used for _display_ purposes: it in no way affects any of the arithmetic of the contract, including {IERC20-balanceOf} and {IERC20-transfer}."
      },
      "decreaseAllowance(address,uint256)": {
        "details": "Atomically decreases the allowance granted to `spender` by the caller. This is an alternative to {approve} that can be used as a mitigation for problems described in {IERC20-approve}. Emits an {Approval} event indicating the updated allowance. Requirements: - `spender` cannot be the zero address. - `spender` must have allowance for the caller of at least `subtractedValue`."
      },
      "increaseAllowance(address,uint256)": {
        "details": "Atomically increases the allowance granted to `spender` by the caller. This is an alternative to {approve} that can be used as a mitigation for problems described in {IERC20-approve}. Emits an {Approval} event indicating the updated allowance. Requirements: - `spender` cannot be the zero address."
      },
      "name()": {
        "details": "Returns the name of the token."
      },
      "symbol()": {
        "details": "Returns the symbol of the token, usually a shorter version of the name."
      },
      "totalSupply()": {
        "details": "See {IERC20-totalSupply}."
      },
      "transfer(address,uint256)": {
        "details": "See {IERC20-transfer}. Requirements: - `to` cannot be the zero address. - the caller must have a balance of at least `amount`."
      },
      "transferFrom(address,address,uint256)": {
        "details": "See {IERC20-transferFrom}. Emits an {Approval} event indicating the updated allowance. This is not required by the EIP. See the note at the beginning of {ERC20}. NOTE: Does not update the allowance if the current allowance is the maximum `uint256`. Requirements: - `from` and `to` cannot be the zero address. - `from` must have a balance of at least `amount`. - the caller must have allowance for ``from``'s tokens of at least `amount`."
      }
    },
    "version": 1
  },
  "opcodes": "PUSH1 0x80 PUSH1 0x40 MSTORE CALLVALUE DUP1 ISZERO PUSH2 0x10 JUMPI PUSH1 0x0 DUP1 REVERT JUMPDEST POP PUSH1 0x4 CALLDATASIZE LT PUSH2 0xEA JUMPI PUSH1 0x0 CALLDATALOAD PUSH1 0xE0 SHR DUP1 PUSH4 0x39509351 GT PUSH2 0x8C JUMPI DUP1 PUSH4 0xA457C2D7 GT PUSH2 0x66 JUMPI DUP1 PUSH4 0xA457C2D7 EQ PUSH2 0x1DD JUMPI DUP1 PUSH4 0xA9059CBB EQ PUSH2 0x1F0 JUMPI DUP1 PUSH4 0xDD62ED3E EQ PUSH2 0x203 JUMPI DUP1 PUSH4 0xF1942CD1 EQ PUSH2 0x23C JUMPI PUSH1 0x0 DUP1 REVERT JUMPDEST DUP1 PUSH4 0x39509351 EQ PUSH2 0x199 JUMPI DUP1 PUSH4 0x70A08231 EQ PUSH2 0x1AC JUMPI DUP1 PUSH4 0x95D89B41 EQ PUSH2 0x1D5 JUMPI PUSH1 0x0 DUP1 REVERT JUMPDEST DUP1 PUSH4 0x18160DDD GT PUSH2 0xC8 JUMPI DUP1 PUSH4 0x18160DDD EQ PUSH2 0x145 JUMPI DUP1 PUSH4 0x1FC0BF28 EQ PUSH2 0x157 JUMPI DUP1 PUSH4 0x23B872DD EQ PUSH2 0x177 JUMPI DUP1 PUSH4 0x313CE567 EQ PUSH2 0x18A JUMPI PUSH1 0x0 DUP1 REVERT JUMPDEST DUP1 PUSH4 0x1A62AED EQ PUSH2 0xEF JUMPI DUP1 PUSH4 0x6FDDE03 EQ PUSH2 0x104 JUMPI DUP1 PUSH4 0x95EA7B3 EQ PUSH2 0x122 JUMPI JUMPDEST PUSH1 0x0 DUP1 REVERT JUMPDEST PUSH2 0x102 PUSH2 0xFD CALLDATASIZE PUSH1 0x4 PUSH2 0x1C96 JUMP JUMPDEST PUSH2 0x24F JUMP JUMPDEST STOP JUMPDEST PUSH2 0x10C PUSH2 0x50B JUMP JUMPDEST PUSH1 0x40 MLOAD PUSH2 0x119 SWAP2 SWAP1 PUSH2 0x1D22 JUMP JUMPDEST PUSH1 0x40 MLOAD DUP1 SWAP2 SUB SWAP1 RETURN JUMPDEST PUSH2 0x135 PUSH2 0x130 CALLDATASIZE PUSH1 0x4 PUSH2 0x1D77 JUMP JUMPDEST PUSH2 0x59D JUMP JUMPDEST PUSH1 0x40 MLOAD SWAP1 ISZERO ISZERO DUP2 MSTORE PUSH1 0x20 ADD PUSH2 0x119 JUMP JUMPDEST PUSH1 0x2 SLOAD JUMPDEST PUSH1 0x40 MLOAD SWAP1 DUP2 MSTORE PUSH1 0x20 ADD PUSH2 0x119 JUMP JUMPDEST PUSH2 0x16A PUSH2 0x165 CALLDATASIZE PUSH1 0x4 PUSH2 0x1DA1 JUMP JUMPDEST PUSH2 0x5B7 JUMP JUMPDEST PUSH1 0x40 MLOAD PUSH2 0x119 SWAP2 SWAP1 PUSH2 0x1DC3 JUMP JUMPDEST PUSH2 0x135 PUSH2 0x185 CALLDATASIZE PUSH1 0x4 PUSH2 0x1DF4 JUMP JUMPDEST PUSH2 0x608 JUMP JUMPDEST PUSH1 0x40 MLOAD PUSH1 0x12 DUP2 MSTORE PUSH1 0x20 ADD PUSH2 0x119 JUMP JUMPDEST PUSH2 0x135 PUSH2 0x1A7 CALLDATASIZE PUSH1 0x4 PUSH2 0x1D77 JUMP JUMPDEST PUSH2 0x62C JUMP JUMPDEST PUSH2 0x149 PUSH2 0x1BA CALLDATASIZE PUSH1 0x4 PUSH2 0x1DA1 JUMP JUMPDEST PUSH1 0x1 PUSH1 0x1 PUSH1 0xA0 SHL SUB AND PUSH1 0x0 SWAP1 DUP2 MSTORE PUSH1 0x20 DUP2 SWAP1 MSTORE PUSH1 0x40 SWAP1 KECCAK256 SLOAD SWAP1 JUMP JUMPDEST PUSH2 0x10C PUSH2 0x66B JUMP JUMPDEST PUSH2 0x135 PUSH2 0x1EB CALLDATASIZE PUSH1 0x4 PUSH2 0x1D77 JUMP JUMPDEST PUSH2 0x67A JUMP JUMPDEST PUSH2 0x135 PUSH2 0x1FE CALLDATASIZE PUSH1 0x4 PUSH2 0x1D77 JUMP JUMPDEST PUSH2 0x711 JUMP JUMPDEST PUSH2 0x149 PUSH2 0x211 CALLDATASIZE PUSH1 0x4 PUSH2 0x1E30 JUMP JUMPDEST PUSH1 0x1 PUSH1 0x1 PUSH1 0xA0 SHL SUB SWAP2 DUP3 AND PUSH1 0x0 SWAP1 DUP2 MSTORE PUSH1 0x1 PUSH1 0x20 SWAP1 DUP2 MSTORE PUSH1 0x40 DUP1 DUP4 KECCAK256 SWAP4 SWAP1 SWAP5 AND DUP3 MSTORE SWAP2 SWAP1 SWAP2 MSTORE KECCAK256 SLOAD SWAP1 JUMP JUMPDEST PUSH2 0x135 PUSH2 0x24A CALLDATASIZE PUSH1 0x4 PUSH2 0x1E63 JUMP JUMPDEST PUSH2 0x71F JUMP JUMPDEST CALLER PUSH1 0x0 SWAP1 DUP2 MSTORE PUSH1 0x5 PUSH1 0x20 MSTORE PUSH1 0x40 DUP1 DUP3 KECCAK256 DUP2 MLOAD DUP1 DUP4 ADD SWAP3 DUP4 SWAP1 MSTORE DUP14 SWAP4 SWAP3 SWAP1 SWAP2 SWAP1 PUSH1 0x2 SWAP1 DUP3 DUP5 JUMPDEST DUP2 SLOAD DUP2 MSTORE PUSH1 0x20 ADD SWAP1 PUSH1 0x1 ADD SWAP1 DUP1 DUP4 GT PUSH2 0x274 JUMPI POP POP POP POP PUSH1 0x1 PUSH1 0x1 PUSH1 0xA0 SHL SUB DUP5 AND PUSH1 0x0 SWAP1 DUP2 MSTORE PUSH1 0x5 PUSH1 0x20 MSTORE PUSH1 0x40 SWAP1 KECCAK256 SLOAD SWAP2 SWAP3 POP POP ISZERO DUP1 ISZERO PUSH2 0x2CE JUMPI POP PUSH1 0x1 PUSH1 0x1 PUSH1 0xA0 SHL SUB DUP3 AND PUSH1 0x0 SWAP1 DUP2 MSTORE PUSH1 0x5 PUSH1 0x20 MSTORE PUSH1 0x40 DUP2 KECCAK256 PUSH1 0x1 ADD SLOAD EQ JUMPDEST ISZERO PUSH2 0x32E JUMPI PUSH1 0x40 DUP1 MLOAD DUP1 DUP3 ADD DUP3 MSTORE PUSH16 0xF5A5FD42D16A20302798EF6ED309979B DUP2 MSTORE PUSH16 0x43003D2320D9F0E8EA9831A92759FB4B PUSH1 0x20 DUP1 DUP4 ADD SWAP2 SWAP1 SWAP2 MSTORE PUSH1 0x1 PUSH1 0x1 PUSH1 0xA0 SHL SUB DUP6 AND PUSH1 0x0 SWAP1 DUP2 MSTORE PUSH1 0x5 SWAP1 SWAP2 MSTORE SWAP2 SWAP1 SWAP2 KECCAK256 PUSH2 0x32C SWAP2 PUSH1 0x2 PUSH2 0x1968 JUMP JUMPDEST POP JUMPDEST PUSH1 0x1 PUSH1 0x1 PUSH1 0xA0 SHL SUB DUP13 AND PUSH1 0x0 SWAP1 DUP2 MSTORE PUSH1 0x5 PUSH1 0x20 MSTORE PUSH1 0x40 DUP1 DUP3 KECCAK256 DUP2 MLOAD DUP1 DUP4 ADD SWAP3 DUP4 SWAP1 MSTORE SWAP2 PUSH1 0x2 SWAP1 DUP3 DUP5 JUMPDEST DUP2 SLOAD DUP2 MSTORE PUSH1 0x20 ADD SWAP1 PUSH1 0x1 ADD SWAP1 DUP1 DUP4 GT PUSH2 0x357 JUMPI POP POP POP POP POP SWAP1 POP PUSH1 0x0 PUSH1 0x40 MLOAD DUP1 PUSH2 0x100 ADD PUSH1 0x40 MSTORE DUP1 PUSH1 0x0 DUP2 MSTORE PUSH1 0x20 ADD DUP5 PUSH1 0x0 PUSH1 0x2 DUP2 LT PUSH2 0x399 JUMPI PUSH2 0x399 PUSH2 0x1EF9 JUMP JUMPDEST PUSH1 0x20 MUL ADD MLOAD DUP2 MSTORE PUSH1 0x20 ADD DUP5 PUSH1 0x1 PUSH1 0x2 DUP2 LT PUSH2 0x3B6 JUMPI PUSH2 0x3B6 PUSH2 0x1EF9 JUMP JUMPDEST PUSH1 0x20 MUL ADD MLOAD DUP2 MSTORE PUSH1 0x20 ADD DUP13 DUP2 MSTORE PUSH1 0x20 ADD DUP12 DUP2 MSTORE PUSH1 0x20 ADD DUP11 DUP2 MSTORE PUSH1 0x20 ADD DUP10 DUP2 MSTORE PUSH1 0x20 ADD DUP7 DUP2 MSTORE POP SWAP1 POP PUSH1 0x0 PUSH1 0x40 MLOAD DUP1 PUSH2 0x100 ADD PUSH1 0x40 MSTORE DUP1 PUSH1 0x1 DUP2 MSTORE PUSH1 0x20 ADD DUP5 PUSH1 0x0 PUSH1 0x2 DUP2 LT PUSH2 0x406 JUMPI PUSH2 0x406 PUSH2 0x1EF9 JUMP JUMPDEST PUSH1 0x20 MUL ADD MLOAD DUP2 MSTORE PUSH1 0x20 ADD DUP5 PUSH1 0x1 PUSH1 0x2 DUP2 LT PUSH2 0x423 JUMPI PUSH2 0x423 PUSH2 0x1EF9 JUMP JUMPDEST PUSH1 0x20 MUL ADD MLOAD DUP2 MSTORE PUSH1 0x20 ADD DUP10 DUP2 MSTORE PUSH1 0x20 ADD DUP9 DUP2 MSTORE PUSH1 0x20 ADD DUP12 DUP2 MSTORE PUSH1 0x20 ADD DUP11 DUP2 MSTORE PUSH1 0x20 ADD DUP8 DUP2 MSTORE POP SWAP1 POP PUSH1 0x0 PUSH2 0x457 DUP16 DUP5 PUSH2 0x71F JUMP JUMPDEST SWAP1 POP PUSH1 0x0 PUSH2 0x465 DUP16 DUP5 PUSH2 0x71F JUMP JUMPDEST SWAP1 POP DUP2 DUP1 ISZERO PUSH2 0x471 JUMPI POP DUP1 JUMPDEST ISZERO PUSH2 0x4F8 JUMPI PUSH1 0x40 MLOAD DUP1 PUSH1 0x40 ADD PUSH1 0x40 MSTORE DUP1 DUP16 DUP2 MSTORE PUSH1 0x20 ADD DUP15 DUP2 MSTORE POP PUSH1 0x5 PUSH1 0x0 CALLER PUSH1 0x1 PUSH1 0x1 PUSH1 0xA0 SHL SUB AND PUSH1 0x1 PUSH1 0x1 PUSH1 0xA0 SHL SUB AND DUP2 MSTORE PUSH1 0x20 ADD SWAP1 DUP2 MSTORE PUSH1 0x20 ADD PUSH1 0x0 KECCAK256 SWAP1 PUSH1 0x2 PUSH2 0x4BE SWAP3 SWAP2 SWAP1 PUSH2 0x19BA JUMP JUMPDEST POP PUSH1 0x40 DUP1 MLOAD DUP1 DUP3 ADD DUP3 MSTORE DUP12 DUP2 MSTORE PUSH1 0x20 DUP1 DUP3 ADD DUP13 SWAP1 MSTORE PUSH1 0x1 PUSH1 0x1 PUSH1 0xA0 SHL SUB DUP11 AND PUSH1 0x0 SWAP1 DUP2 MSTORE PUSH1 0x5 SWAP1 SWAP2 MSTORE SWAP2 SWAP1 SWAP2 KECCAK256 PUSH2 0x4F6 SWAP2 PUSH1 0x2 PUSH2 0x19BA JUMP JUMPDEST POP JUMPDEST POP POP POP POP POP POP POP POP POP POP POP POP POP POP POP POP POP JUMP JUMPDEST PUSH1 0x60 PUSH1 0x3 DUP1 SLOAD PUSH2 0x51A SWAP1 PUSH2 0x1F0F JUMP JUMPDEST DUP1 PUSH1 0x1F ADD PUSH1 0x20 DUP1 SWAP2 DIV MUL PUSH1 0x20 ADD PUSH1 0x40 MLOAD SWAP1 DUP2 ADD PUSH1 0x40 MSTORE DUP1 SWAP3 SWAP2 SWAP1 DUP2 DUP2 MSTORE PUSH1 0x20 ADD DUP3 DUP1 SLOAD PUSH2 0x546 SWAP1 PUSH2 0x1F0F JUMP JUMPDEST DUP1 ISZERO PUSH2 0x593 JUMPI DUP1 PUSH1 0x1F LT PUSH2 0x568 JUMPI PUSH2 0x100 DUP1 DUP4 SLOAD DIV MUL DUP4 MSTORE SWAP2 PUSH1 0x20 ADD SWAP2 PUSH2 0x593 JUMP JUMPDEST DUP3 ADD SWAP2 SWAP1 PUSH1 0x0 MSTORE PUSH1 0x20 PUSH1 0x0 KECCAK256 SWAP1 JUMPDEST DUP2 SLOAD DUP2 MSTORE SWAP1 PUSH1 0x1 ADD SWAP1 PUSH1 0x20 ADD DUP1 DUP4 GT PUSH2 0x576 JUMPI DUP3 SWAP1 SUB PUSH1 0x1F AND DUP3 ADD SWAP2 JUMPDEST POP POP POP POP POP SWAP1 POP SWAP1 JUMP JUMPDEST PUSH1 0x0 CALLER PUSH2 0x5AB DUP2 DUP6 DUP6 PUSH2 0x7BC JUMP JUMPDEST PUSH1 0x1 SWAP2 POP POP JUMPDEST SWAP3 SWAP2 POP POP JUMP JUMPDEST PUSH2 0x5BF PUSH2 0x19E8 JUMP JUMPDEST PUSH1 0x1 PUSH1 0x1 PUSH1 0xA0 SHL SUB DUP3 AND PUSH1 0x0 SWAP1 DUP2 MSTORE PUSH1 0x5 PUSH1 0x20 MSTORE PUSH1 0x40 SWAP1 DUP2 SWAP1 KECCAK256 DUP2 MLOAD DUP1 DUP4 ADD SWAP3 DUP4 SWAP1 MSTORE SWAP2 PUSH1 0x2 SWAP1 DUP3 DUP5 JUMPDEST DUP2 SLOAD DUP2 MSTORE PUSH1 0x20 ADD SWAP1 PUSH1 0x1 ADD SWAP1 DUP1 DUP4 GT PUSH2 0x5E9 JUMPI POP POP POP POP POP SWAP1 POP SWAP2 SWAP1 POP JUMP JUMPDEST PUSH1 0x0 CALLER PUSH2 0x616 DUP6 DUP3 DUP6 PUSH2 0x8E0 JUMP JUMPDEST PUSH2 0x621 DUP6 DUP6 DUP6 PUSH2 0x972 JUMP JUMPDEST POP PUSH1 0x1 SWAP5 SWAP4 POP POP POP POP JUMP JUMPDEST CALLER PUSH1 0x0 DUP2 DUP2 MSTORE PUSH1 0x1 PUSH1 0x20 SWAP1 DUP2 MSTORE PUSH1 0x40 DUP1 DUP4 KECCAK256 PUSH1 0x1 PUSH1 0x1 PUSH1 0xA0 SHL SUB DUP8 AND DUP5 MSTORE SWAP1 SWAP2 MSTORE DUP2 KECCAK256 SLOAD SWAP1 SWAP2 SWAP1 PUSH2 0x5AB SWAP1 DUP3 SWAP1 DUP7 SWAP1 PUSH2 0x666 SWAP1 DUP8 SWAP1 PUSH2 0x1F60 JUMP JUMPDEST PUSH2 0x7BC JUMP JUMPDEST PUSH1 0x60 PUSH1 0x4 DUP1 SLOAD PUSH2 0x51A SWAP1 PUSH2 0x1F0F JUMP JUMPDEST CALLER PUSH1 0x0 DUP2 DUP2 MSTORE PUSH1 0x1 PUSH1 0x20 SWAP1 DUP2 MSTORE PUSH1 0x40 DUP1 DUP4 KECCAK256 PUSH1 0x1 PUSH1 0x1 PUSH1 0xA0 SHL SUB DUP8 AND DUP5 MSTORE SWAP1 SWAP2 MSTORE DUP2 KECCAK256 SLOAD SWAP1 SWAP2 SWAP1 DUP4 DUP2 LT ISZERO PUSH2 0x704 JUMPI PUSH1 0x40 MLOAD PUSH3 0x461BCD PUSH1 0xE5 SHL DUP2 MSTORE PUSH1 0x20 PUSH1 0x4 DUP3 ADD MSTORE PUSH1 0x25 PUSH1 0x24 DUP3 ADD MSTORE PUSH32 0x45524332303A2064656372656173656420616C6C6F77616E63652062656C6F77 PUSH1 0x44 DUP3 ADD MSTORE PUSH5 0x207A65726F PUSH1 0xD8 SHL PUSH1 0x64 DUP3 ADD MSTORE PUSH1 0x84 ADD JUMPDEST PUSH1 0x40 MLOAD DUP1 SWAP2 SUB SWAP1 REVERT JUMPDEST PUSH2 0x621 DUP3 DUP7 DUP7 DUP5 SUB PUSH2 0x7BC JUMP JUMPDEST PUSH1 0x0 CALLER PUSH2 0x5AB DUP2 DUP6 DUP6 PUSH2 0x972 JUMP JUMPDEST PUSH1 0x40 DUP1 MLOAD PUSH1 0x8 DUP1 DUP3 MSTORE PUSH2 0x120 DUP3 ADD SWAP1 SWAP3 MSTORE PUSH1 0x0 SWAP2 DUP3 SWAP2 SWAP1 PUSH1 0x20 DUP3 ADD PUSH2 0x100 DUP1 CALLDATASIZE DUP4 CALLDATACOPY ADD SWAP1 POP POP SWAP1 POP PUSH1 0x0 JUMPDEST PUSH1 0x8 DUP2 LT ISZERO PUSH2 0x799 JUMPI DUP4 DUP2 PUSH1 0x8 DUP2 LT PUSH2 0x765 JUMPI PUSH2 0x765 PUSH2 0x1EF9 JUMP JUMPDEST PUSH1 0x20 MUL ADD MLOAD DUP3 DUP3 DUP2 MLOAD DUP2 LT PUSH2 0x77C JUMPI PUSH2 0x77C PUSH2 0x1EF9 JUMP JUMPDEST PUSH1 0x20 SWAP1 DUP2 MUL SWAP2 SWAP1 SWAP2 ADD ADD MSTORE DUP1 PUSH2 0x791 DUP2 PUSH2 0x1F78 JUMP JUMPDEST SWAP2 POP POP PUSH2 0x74A JUMP JUMPDEST POP PUSH2 0x7A4 DUP2 DUP6 PUSH2 0xB40 JUMP JUMPDEST PUSH2 0x7B2 JUMPI PUSH1 0x1 SWAP2 POP POP PUSH2 0x5B1 JUMP JUMPDEST PUSH1 0x0 SWAP2 POP POP PUSH2 0x5B1 JUMP JUMPDEST PUSH1 0x1 PUSH1 0x1 PUSH1 0xA0 SHL SUB DUP4 AND PUSH2 0x81E JUMPI PUSH1 0x40 MLOAD PUSH3 0x461BCD PUSH1 0xE5 SHL DUP2 MSTORE PUSH1 0x20 PUSH1 0x4 DUP3 ADD MSTORE PUSH1 0x24 DUP1 DUP3 ADD MSTORE PUSH32 0x45524332303A20617070726F76652066726F6D20746865207A65726F20616464 PUSH1 0x44 DUP3 ADD MSTORE PUSH4 0x72657373 PUSH1 0xE0 SHL PUSH1 0x64 DUP3 ADD MSTORE PUSH1 0x84 ADD PUSH2 0x6FB JUMP JUMPDEST PUSH1 0x1 PUSH1 0x1 PUSH1 0xA0 SHL SUB DUP3 AND PUSH2 0x87F JUMPI PUSH1 0x40 MLOAD PUSH3 0x461BCD PUSH1 0xE5 SHL DUP2 MSTORE PUSH1 0x20 PUSH1 0x4 DUP3 ADD MSTORE PUSH1 0x22 PUSH1 0x24 DUP3 ADD MSTORE PUSH32 0x45524332303A20617070726F766520746F20746865207A65726F206164647265 PUSH1 0x44 DUP3 ADD MSTORE PUSH2 0x7373 PUSH1 0xF0 SHL PUSH1 0x64 DUP3 ADD MSTORE PUSH1 0x84 ADD PUSH2 0x6FB JUMP JUMPDEST PUSH1 0x1 PUSH1 0x1 PUSH1 0xA0 SHL SUB DUP4 DUP2 AND PUSH1 0x0 DUP2 DUP2 MSTORE PUSH1 0x1 PUSH1 0x20 SWAP1 DUP2 MSTORE PUSH1 0x40 DUP1 DUP4 KECCAK256 SWAP5 DUP8 AND DUP1 DUP5 MSTORE SWAP5 DUP3 MSTORE SWAP2 DUP3 SWAP1 KECCAK256 DUP6 SWAP1 SSTORE SWAP1 MLOAD DUP5 DUP2 MSTORE PUSH32 0x8C5BE1E5EBEC7D5BD14F71427D1E84F3DD0314C0F7B2291E5B200AC8C7C3B925 SWAP2 ADD PUSH1 0x40 MLOAD DUP1 SWAP2 SUB SWAP1 LOG3 POP POP POP JUMP JUMPDEST PUSH1 0x1 PUSH1 0x1 PUSH1 0xA0 SHL SUB DUP4 DUP2 AND PUSH1 0x0 SWAP1 DUP2 MSTORE PUSH1 0x1 PUSH1 0x20 SWAP1 DUP2 MSTORE PUSH1 0x40 DUP1 DUP4 KECCAK256 SWAP4 DUP7 AND DUP4 MSTORE SWAP3 SWAP1 MSTORE KECCAK256 SLOAD PUSH1 0x0 NOT DUP2 EQ PUSH2 0x96C JUMPI DUP2 DUP2 LT ISZERO PUSH2 0x95F JUMPI PUSH1 0x40 MLOAD PUSH3 0x461BCD PUSH1 0xE5 SHL DUP2 MSTORE PUSH1 0x20 PUSH1 0x4 DUP3 ADD MSTORE PUSH1 0x1D PUSH1 0x24 DUP3 ADD MSTORE PUSH32 0x45524332303A20696E73756666696369656E7420616C6C6F77616E6365000000 PUSH1 0x44 DUP3 ADD MSTORE PUSH1 0x64 ADD PUSH2 0x6FB JUMP JUMPDEST PUSH2 0x96C DUP5 DUP5 DUP5 DUP5 SUB PUSH2 0x7BC JUMP JUMPDEST POP POP POP POP JUMP JUMPDEST PUSH1 0x1 PUSH1 0x1 PUSH1 0xA0 SHL SUB DUP4 AND PUSH2 0x9D6 JUMPI PUSH1 0x40 MLOAD PUSH3 0x461BCD PUSH1 0xE5 SHL DUP2 MSTORE PUSH1 0x20 PUSH1 0x4 DUP3 ADD MSTORE PUSH1 0x25 PUSH1 0x24 DUP3 ADD MSTORE PUSH32 0x45524332303A207472616E736665722066726F6D20746865207A65726F206164 PUSH1 0x44 DUP3 ADD MSTORE PUSH5 0x6472657373 PUSH1 0xD8 SHL PUSH1 0x64 DUP3 ADD MSTORE PUSH1 0x84 ADD PUSH2 0x6FB JUMP JUMPDEST PUSH1 0x1 PUSH1 0x1 PUSH1 0xA0 SHL SUB DUP3 AND PUSH2 0xA38 JUMPI PUSH1 0x40 MLOAD PUSH3 0x461BCD PUSH1 0xE5 SHL DUP2 MSTORE PUSH1 0x20 PUSH1 0x4 DUP3 ADD MSTORE PUSH1 0x23 PUSH1 0x24 DUP3 ADD MSTORE PUSH32 0x45524332303A207472616E7366657220746F20746865207A65726F2061646472 PUSH1 0x44 DUP3 ADD MSTORE PUSH3 0x657373 PUSH1 0xE8 SHL PUSH1 0x64 DUP3 ADD MSTORE PUSH1 0x84 ADD PUSH2 0x6FB JUMP JUMPDEST PUSH1 0x1 PUSH1 0x1 PUSH1 0xA0 SHL SUB DUP4 AND PUSH1 0x0 SWAP1 DUP2 MSTORE PUSH1 0x20 DUP2 SWAP1 MSTORE PUSH1 0x40 SWAP1 KECCAK256 SLOAD DUP2 DUP2 LT ISZERO PUSH2 0xAB0 JUMPI PUSH1 0x40 MLOAD PUSH3 0x461BCD PUSH1 0xE5 SHL DUP2 MSTORE PUSH1 0x20 PUSH1 0x4 DUP3 ADD MSTORE PUSH1 0x26 PUSH1 0x24 DUP3 ADD MSTORE PUSH32 0x45524332303A207472616E7366657220616D6F756E7420657863656564732062 PUSH1 0x44 DUP3 ADD MSTORE PUSH6 0x616C616E6365 PUSH1 0xD0 SHL PUSH1 0x64 DUP3 ADD MSTORE PUSH1 0x84 ADD PUSH2 0x6FB JUMP JUMPDEST PUSH1 0x1 PUSH1 0x1 PUSH1 0xA0 SHL SUB DUP1 DUP6 AND PUSH1 0x0 SWAP1 DUP2 MSTORE PUSH1 0x20 DUP2 SWAP1 MSTORE PUSH1 0x40 DUP1 DUP3 KECCAK256 DUP6 DUP6 SUB SWAP1 SSTORE SWAP2 DUP6 AND DUP2 MSTORE SWAP1 DUP2 KECCAK256 DUP1 SLOAD DUP5 SWAP3 SWAP1 PUSH2 0xAE7 SWAP1 DUP5 SWAP1 PUSH2 0x1F60 JUMP JUMPDEST SWAP3 POP POP DUP2 SWAP1 SSTORE POP DUP3 PUSH1 0x1 PUSH1 0x1 PUSH1 0xA0 SHL SUB AND DUP5 PUSH1 0x1 PUSH1 0x1 PUSH1 0xA0 SHL SUB AND PUSH32 0xDDF252AD1BE2C89B69C2B068FC378DAA952BA7F163C4A11628F55A4DF523B3EF DUP5 PUSH1 0x40 MLOAD PUSH2 0xB33 SWAP2 DUP2 MSTORE PUSH1 0x20 ADD SWAP1 JUMP JUMPDEST PUSH1 0x40 MLOAD DUP1 SWAP2 SUB SWAP1 LOG3 PUSH2 0x96C JUMP JUMPDEST PUSH1 0x0 PUSH32 0x30644E72E131A029B85045B68181585D2833E84879B9709143E1F593F0000001 DUP2 PUSH2 0xB6C PUSH2 0xCC3 JUMP JUMPDEST SWAP1 POP DUP1 PUSH1 0x80 ADD MLOAD MLOAD DUP6 MLOAD PUSH1 0x1 PUSH2 0xB82 SWAP2 SWAP1 PUSH2 0x1F60 JUMP JUMPDEST EQ PUSH2 0xB8C JUMPI PUSH1 0x0 DUP1 REVERT JUMPDEST PUSH1 0x40 DUP1 MLOAD DUP1 DUP3 ADD SWAP1 SWAP2 MSTORE PUSH1 0x0 DUP1 DUP3 MSTORE PUSH1 0x20 DUP3 ADD DUP2 SWAP1 MSTORE JUMPDEST DUP7 MLOAD DUP2 LT ISZERO PUSH2 0xC3A JUMPI DUP4 DUP8 DUP3 DUP2 MLOAD DUP2 LT PUSH2 0xBBF JUMPI PUSH2 0xBBF PUSH2 0x1EF9 JUMP JUMPDEST PUSH1 0x20 MUL PUSH1 0x20 ADD ADD MLOAD LT PUSH2 0xBD1 JUMPI PUSH1 0x0 DUP1 REVERT JUMPDEST PUSH2 0xC26 DUP3 PUSH2 0xC21 DUP6 PUSH1 0x80 ADD MLOAD DUP5 PUSH1 0x1 PUSH2 0xBEA SWAP2 SWAP1 PUSH2 0x1F60 JUMP JUMPDEST DUP2 MLOAD DUP2 LT PUSH2 0xBFA JUMPI PUSH2 0xBFA PUSH2 0x1EF9 JUMP JUMPDEST PUSH1 0x20 MUL PUSH1 0x20 ADD ADD MLOAD DUP11 DUP6 DUP2 MLOAD DUP2 LT PUSH2 0xC14 JUMPI PUSH2 0xC14 PUSH2 0x1EF9 JUMP JUMPDEST PUSH1 0x20 MUL PUSH1 0x20 ADD ADD MLOAD PUSH2 0x13A0 JUMP JUMPDEST PUSH2 0x1404 JUMP JUMPDEST SWAP2 POP DUP1 PUSH2 0xC32 DUP2 PUSH2 0x1F78 JUMP JUMPDEST SWAP2 POP POP PUSH2 0xBA3 JUMP JUMPDEST POP PUSH2 0xC63 DUP2 DUP4 PUSH1 0x80 ADD MLOAD PUSH1 0x0 DUP2 MLOAD DUP2 LT PUSH2 0xC56 JUMPI PUSH2 0xC56 PUSH2 0x1EF9 JUMP JUMPDEST PUSH1 0x20 MUL PUSH1 0x20 ADD ADD MLOAD PUSH2 0x1404 JUMP JUMPDEST SWAP1 POP PUSH2 0xCA7 DUP6 PUSH1 0x0 ADD MLOAD DUP7 PUSH1 0x20 ADD MLOAD PUSH2 0xC7B DUP5 PUSH2 0x145E JUMP JUMPDEST DUP6 PUSH1 0x40 ADD MLOAD PUSH2 0xC8D DUP11 PUSH1 0x40 ADD MLOAD PUSH2 0x145E JUMP JUMPDEST PUSH1 0x60 DUP9 ADD MLOAD DUP9 MLOAD PUSH2 0xC9D SWAP1 PUSH2 0x145E JUMP JUMPDEST DUP10 PUSH1 0x20 ADD MLOAD PUSH2 0x14FD JUMP JUMPDEST PUSH2 0xCB7 JUMPI PUSH1 0x1 SWAP4 POP POP POP POP PUSH2 0x5B1 JUMP JUMPDEST POP PUSH1 0x0 SWAP6 SWAP5 POP POP POP POP POP JUMP JUMPDEST PUSH2 0xCCB PUSH2 0x1A06 JUMP JUMPDEST PUSH1 0x40 DUP1 MLOAD DUP1 DUP3 ADD DUP3 MSTORE PUSH32 0x6F6A9234F37B768ED85404CB0E1545CE3F74AB4F6AC123F0195C7EE888DCDEE DUP2 MSTORE PUSH32 0x2547046E40CDB7225EFACF433452EEE46703BD7B34D615AD0AEBFA6A2B8F2E97 PUSH1 0x20 DUP1 DUP4 ADD SWAP2 SWAP1 SWAP2 MSTORE SWAP1 DUP4 MSTORE DUP2 MLOAD PUSH1 0x80 DUP1 DUP3 ADD DUP5 MSTORE PUSH32 0x17DB565CFC86ADAAEDB90E183BB9DE4978F9AC2CC25317899DF2B76FCB26B5C3 DUP3 DUP6 ADD SWAP1 DUP2 MSTORE PUSH32 0x26932B0217D1919CDCCD0509E9EBEB8C2E62EAA646FF3EAEE8CB337255198C98 PUSH1 0x60 DUP1 DUP6 ADD SWAP2 SWAP1 SWAP2 MSTORE SWAP1 DUP4 MSTORE DUP5 MLOAD DUP1 DUP7 ADD DUP7 MSTORE PUSH32 0x28B5996E4439774FAE5EEDF820A7648C8E4A762EA907C5411EC4A5CBFD104B77 DUP2 MSTORE PUSH32 0x2121442A2453A1D927B4493A42C06528B72908731D39F13A865D54A0803769DC DUP2 DUP7 ADD MSTORE DUP4 DUP6 ADD MSTORE DUP6 DUP5 ADD SWAP3 SWAP1 SWAP3 MSTORE DUP4 MLOAD DUP1 DUP3 ADD DUP6 MSTORE PUSH32 0x1E5505A4E704260E7051AD2CC6FD538BBF5020AC66824641AF5EE05FB19D78FE DUP2 DUP7 ADD SWAP1 DUP2 MSTORE PUSH32 0x2E2ED78451D277C6B52A9E02F745990123EB529028E637C3ACAFC23E16CF0E1D DUP3 DUP6 ADD MSTORE DUP2 MSTORE DUP5 MLOAD DUP1 DUP7 ADD DUP7 MSTORE PUSH32 0x2B4CD9BB8751AFAF2F6A46E66AE6F59D9233338766646BA9ED2A7509B4A4220F DUP2 MSTORE PUSH32 0x221ED174C7BE03A5C2E1AC3F220C54DBA4C5AB20B356BAB44EBA1D5482D8A792 DUP2 DUP7 ADD MSTORE DUP2 DUP6 ADD MSTORE DUP6 DUP6 ADD MSTORE DUP4 MLOAD SWAP1 DUP2 ADD DUP5 MSTORE PUSH32 0x2CA48BA98112207B2034004925F442E2B03426D99B72C22A861E9E7AA66D7CCF DUP2 DUP6 ADD SWAP1 DUP2 MSTORE PUSH32 0x1293639FF81E8A13CCFCA65F99D2CF1D8C211F05C8B2092D971B5B0DBB520C4 DUP3 DUP5 ADD MSTORE DUP2 MSTORE DUP4 MLOAD DUP1 DUP6 ADD DUP6 MSTORE PUSH32 0x15AE9A012EE94D8D19170FAA2973336C8A32E978919B114C1C416117CCBC2C24 DUP2 MSTORE PUSH32 0x73F7BDED8EC941D931E559D46E32064BEFD8506274F491DC33F09A4AD27DC68 DUP2 DUP6 ADD MSTORE DUP2 DUP5 ADD MSTORE SWAP1 DUP5 ADD MSTORE DUP2 MLOAD PUSH1 0x9 DUP1 DUP3 MSTORE PUSH2 0x140 DUP3 ADD SWAP1 SWAP4 MSTORE SWAP2 SWAP1 DUP3 ADD JUMPDEST PUSH1 0x40 DUP1 MLOAD DUP1 DUP3 ADD SWAP1 SWAP2 MSTORE PUSH1 0x0 DUP1 DUP3 MSTORE PUSH1 0x20 DUP3 ADD MSTORE DUP2 MSTORE PUSH1 0x20 ADD SWAP1 PUSH1 0x1 SWAP1 SUB SWAP1 DUP2 PUSH2 0xF47 JUMPI POP POP PUSH1 0x80 DUP3 ADD SWAP1 DUP2 MSTORE PUSH1 0x40 DUP1 MLOAD DUP1 DUP3 ADD SWAP1 SWAP2 MSTORE PUSH32 0x7834CEB6AE05574A2E81BA48669CEC245B20310BF971330007FF321377FD27A DUP2 MSTORE PUSH32 0x28DEBDEADC1F38E58516BAEFBA67A91B60C9F86F2CB49A434DE82840CB8CDB7A PUSH1 0x20 DUP3 ADD MSTORE SWAP1 MLOAD DUP1 MLOAD PUSH1 0x0 SWAP1 PUSH2 0xFDA JUMPI PUSH2 0xFDA PUSH2 0x1EF9 JUMP JUMPDEST PUSH1 0x20 MUL PUSH1 0x20 ADD ADD DUP2 SWAP1 MSTORE POP PUSH1 0x40 MLOAD DUP1 PUSH1 0x40 ADD PUSH1 0x40 MSTORE DUP1 PUSH32 0x194F7EBFE8A86AE4188E9045FD47F133F93A3A49EEA93D7CC57E2D96FC29BEA9 DUP2 MSTORE PUSH1 0x20 ADD PUSH32 0x2D102A4E456D37365CE5F1A079ACB34D7E35CC60FB428A7E293C36E8882D146 DUP2 MSTORE POP DUP2 PUSH1 0x80 ADD MLOAD PUSH1 0x1 DUP2 MLOAD DUP2 LT PUSH2 0x1051 JUMPI PUSH2 0x1051 PUSH2 0x1EF9 JUMP JUMPDEST PUSH1 0x20 MUL PUSH1 0x20 ADD ADD DUP2 SWAP1 MSTORE POP PUSH1 0x40 MLOAD DUP1 PUSH1 0x40 ADD PUSH1 0x40 MSTORE DUP1 PUSH32 0x1594FAA95AC67B59C1961F3EF62E8FBF9949FFCA39A471DDD325633E2A68A313 DUP2 MSTORE PUSH1 0x20 ADD PUSH32 0x1D4AC07D85E3E69B4D647147F5B75B0C1513CD778B09B49EC577F31574ED6C1 DUP2 MSTORE POP DUP2 PUSH1 0x80 ADD MLOAD PUSH1 0x2 DUP2 MLOAD DUP2 LT PUSH2 0x10C8 JUMPI PUSH2 0x10C8 PUSH2 0x1EF9 JUMP JUMPDEST PUSH1 0x20 MUL PUSH1 0x20 ADD ADD DUP2 SWAP1 MSTORE POP PUSH1 0x40 MLOAD DUP1 PUSH1 0x40 ADD PUSH1 0x40 MSTORE DUP1 PUSH32 0xF09986445BB2D34E8B8638BE962994A615AF5B0D07B75561C27D549E7BF2CFA DUP2 MSTORE PUSH1 0x20 ADD PUSH32 0x141A0CDB3ADF0CBFBB11D8EDA48F458DB640AD177F0360B128294B768479F682 DUP2 MSTORE POP DUP2 PUSH1 0x80 ADD MLOAD PUSH1 0x3 DUP2 MLOAD DUP2 LT PUSH2 0x113F JUMPI PUSH2 0x113F PUSH2 0x1EF9 JUMP JUMPDEST PUSH1 0x20 MUL PUSH1 0x20 ADD ADD DUP2 SWAP1 MSTORE POP PUSH1 0x40 MLOAD DUP1 PUSH1 0x40 ADD PUSH1 0x40 MSTORE DUP1 PUSH32 0x9CB55C9319CCC4CC148E6F5DA8B1015ADE818216177798C22AF714E8E83A430 DUP2 MSTORE PUSH1 0x20 ADD PUSH32 0x1073C9189F271ABE6CCB93BD67A934D8EAC725371980B01B236571113D5C4696 DUP2 MSTORE POP DUP2 PUSH1 0x80 ADD MLOAD PUSH1 0x4 DUP2 MLOAD DUP2 LT PUSH2 0x11B6 JUMPI PUSH2 0x11B6 PUSH2 0x1EF9 JUMP JUMPDEST PUSH1 0x20 MUL PUSH1 0x20 ADD ADD DUP2 SWAP1 MSTORE POP PUSH1 0x40 MLOAD DUP1 PUSH1 0x40 ADD PUSH1 0x40 MSTORE DUP1 PUSH32 0x2D5AACFD8311B26B8B649D3C879732CECB68AAE180F8C5180A50B55455EEB97A DUP2 MSTORE PUSH1 0x20 ADD PUSH32 0x104CE9133E0AA0D6C87490CC6F63DEEF93119021DE69E4E5CC9C6E1D6564FFE2 DUP2 MSTORE POP DUP2 PUSH1 0x80 ADD MLOAD PUSH1 0x5 DUP2 MLOAD DUP2 LT PUSH2 0x122D JUMPI PUSH2 0x122D PUSH2 0x1EF9 JUMP JUMPDEST PUSH1 0x20 MUL PUSH1 0x20 ADD ADD DUP2 SWAP1 MSTORE POP PUSH1 0x40 MLOAD DUP1 PUSH1 0x40 ADD PUSH1 0x40 MSTORE DUP1 PUSH32 0xCA6E9AAA79DFE30B7431D32B766DDB57CA2FB5CB886376D8708D3ED159AB313 DUP2 MSTORE PUSH1 0x20 ADD PUSH32 0x3F384E39CFA0F68A88F7E5CD17641F470163C0729F5725BFBB0E7CCBF73141C DUP2 MSTORE POP DUP2 PUSH1 0x80 ADD MLOAD PUSH1 0x6 DUP2 MLOAD DUP2 LT PUSH2 0x12A4 JUMPI PUSH2 0x12A4 PUSH2 0x1EF9 JUMP JUMPDEST PUSH1 0x20 MUL PUSH1 0x20 ADD ADD DUP2 SWAP1 MSTORE POP PUSH1 0x40 MLOAD DUP1 PUSH1 0x40 ADD PUSH1 0x40 MSTORE DUP1 PUSH32 0x131074B4D6F338451859165DE81ED0E2DC4C6D985BF54940AF13B3A258A0010F DUP2 MSTORE PUSH1 0x20 ADD PUSH32 0x1798EDD77563F61521CE0AA7C3C77C605C1C646126983A249088424E29270B4C DUP2 MSTORE POP DUP2 PUSH1 0x80 ADD MLOAD PUSH1 0x7 DUP2 MLOAD DUP2 LT PUSH2 0x131B JUMPI PUSH2 0x131B PUSH2 0x1EF9 JUMP JUMPDEST PUSH1 0x20 MUL PUSH1 0x20 ADD ADD DUP2 SWAP1 MSTORE POP PUSH1 0x40 MLOAD DUP1 PUSH1 0x40 ADD PUSH1 0x40 MSTORE DUP1 PUSH32 0x2BA65D1FC956FA23B052321B437122CEF3F0B893CD5B07E40348C410146B52EA DUP2 MSTORE PUSH1 0x20 ADD PUSH32 0x16F3FD9B943B6B559727C3D1404E828A3F50444F4013B307127643646EE00D4F DUP2 MSTORE POP DUP2 PUSH1 0x80 ADD MLOAD PUSH1 0x8 DUP2 MLOAD DUP2 LT PUSH2 0x1392 JUMPI PUSH2 0x1392 PUSH2 0x1EF9 JUMP JUMPDEST PUSH1 0x20 MUL PUSH1 0x20 ADD ADD DUP2 SWAP1 MSTORE POP SWAP1 JUMP JUMPDEST PUSH1 0x40 DUP1 MLOAD DUP1 DUP3 ADD SWAP1 SWAP2 MSTORE PUSH1 0x0 DUP1 DUP3 MSTORE PUSH1 0x20 DUP3 ADD MSTORE PUSH2 0x13BC PUSH2 0x1A57 JUMP JUMPDEST DUP4 MLOAD DUP2 MSTORE PUSH1 0x20 DUP1 DUP6 ADD MLOAD SWAP1 DUP3 ADD MSTORE PUSH1 0x40 DUP2 ADD DUP4 SWAP1 MSTORE PUSH1 0x0 PUSH1 0x60 DUP4 PUSH1 0x80 DUP5 PUSH1 0x7 PUSH2 0x7D0 GAS SUB STATICCALL SWAP1 POP DUP1 DUP1 ISZERO PUSH2 0x13EF JUMPI PUSH2 0x13F1 JUMP JUMPDEST INVALID JUMPDEST POP DUP1 PUSH2 0x13FC JUMPI PUSH1 0x0 DUP1 REVERT JUMPDEST POP POP SWAP3 SWAP2 POP POP JUMP JUMPDEST PUSH1 0x40 DUP1 MLOAD DUP1 DUP3 ADD SWAP1 SWAP2 MSTORE PUSH1 0x0 DUP1 DUP3 MSTORE PUSH1 0x20 DUP3 ADD MSTORE PUSH2 0x1420 PUSH2 0x1A75 JUMP JUMPDEST DUP4 MLOAD DUP2 MSTORE PUSH1 0x20 DUP1 DUP6 ADD MLOAD DUP2 DUP4 ADD MSTORE DUP4 MLOAD PUSH1 0x40 DUP4 ADD MSTORE DUP4 ADD MLOAD PUSH1 0x60 DUP1 DUP4 ADD SWAP2 SWAP1 SWAP2 MSTORE PUSH1 0x0 SWAP1 DUP4 PUSH1 0xC0 DUP5 PUSH1 0x6 PUSH2 0x7D0 GAS SUB STATICCALL SWAP1 POP DUP1 DUP1 ISZERO PUSH2 0x13EF JUMPI PUSH2 0x13F1 JUMP JUMPDEST PUSH1 0x40 DUP1 MLOAD DUP1 DUP3 ADD SWAP1 SWAP2 MSTORE PUSH1 0x0 DUP1 DUP3 MSTORE PUSH1 0x20 DUP3 ADD MSTORE DUP2 MLOAD PUSH32 0x30644E72E131A029B85045B68181585D97816A916871CA8D3C208C16D87CFD47 SWAP1 ISZERO DUP1 ISZERO PUSH2 0x14A5 JUMPI POP PUSH1 0x20 DUP4 ADD MLOAD ISZERO JUMPDEST ISZERO PUSH2 0x14C5 JUMPI POP POP PUSH1 0x40 DUP1 MLOAD DUP1 DUP3 ADD SWAP1 SWAP2 MSTORE PUSH1 0x0 DUP1 DUP3 MSTORE PUSH1 0x20 DUP3 ADD MSTORE SWAP2 SWAP1 POP JUMP JUMPDEST PUSH1 0x40 MLOAD DUP1 PUSH1 0x40 ADD PUSH1 0x40 MSTORE DUP1 DUP5 PUSH1 0x0 ADD MLOAD DUP2 MSTORE PUSH1 0x20 ADD DUP3 DUP6 PUSH1 0x20 ADD MLOAD PUSH2 0x14EA SWAP2 SWAP1 PUSH2 0x1F93 JUMP JUMPDEST PUSH2 0x14F4 SWAP1 DUP5 PUSH2 0x1FB5 JUMP JUMPDEST SWAP1 MSTORE SWAP4 SWAP3 POP POP POP JUMP JUMPDEST PUSH1 0x40 DUP1 MLOAD PUSH1 0x4 DUP1 DUP3 MSTORE PUSH1 0xA0 DUP3 ADD SWAP1 SWAP3 MSTORE PUSH1 0x0 SWAP2 DUP3 SWAP2 SWAP1 DUP2 PUSH1 0x20 ADD JUMPDEST PUSH1 0x40 DUP1 MLOAD DUP1 DUP3 ADD SWAP1 SWAP2 MSTORE PUSH1 0x0 DUP1 DUP3 MSTORE PUSH1 0x20 DUP3 ADD MSTORE DUP2 MSTORE PUSH1 0x20 ADD SWAP1 PUSH1 0x1 SWAP1 SUB SWAP1 DUP2 PUSH2 0x1518 JUMPI POP POP PUSH1 0x40 DUP1 MLOAD PUSH1 0x4 DUP1 DUP3 MSTORE PUSH1 0xA0 DUP3 ADD SWAP1 SWAP3 MSTORE SWAP2 SWAP3 POP PUSH1 0x0 SWAP2 SWAP1 PUSH1 0x20 DUP3 ADD JUMPDEST PUSH2 0x1562 PUSH2 0x1A93 JUMP JUMPDEST DUP2 MSTORE PUSH1 0x20 ADD SWAP1 PUSH1 0x1 SWAP1 SUB SWAP1 DUP2 PUSH2 0x155A JUMPI SWAP1 POP POP SWAP1 POP DUP11 DUP3 PUSH1 0x0 DUP2 MLOAD DUP2 LT PUSH2 0x158B JUMPI PUSH2 0x158B PUSH2 0x1EF9 JUMP JUMPDEST PUSH1 0x20 MUL PUSH1 0x20 ADD ADD DUP2 SWAP1 MSTORE POP DUP9 DUP3 PUSH1 0x1 DUP2 MLOAD DUP2 LT PUSH2 0x15AA JUMPI PUSH2 0x15AA PUSH2 0x1EF9 JUMP JUMPDEST PUSH1 0x20 MUL PUSH1 0x20 ADD ADD DUP2 SWAP1 MSTORE POP DUP7 DUP3 PUSH1 0x2 DUP2 MLOAD DUP2 LT PUSH2 0x15C9 JUMPI PUSH2 0x15C9 PUSH2 0x1EF9 JUMP JUMPDEST PUSH1 0x20 MUL PUSH1 0x20 ADD ADD DUP2 SWAP1 MSTORE POP DUP5 DUP3 PUSH1 0x3 DUP2 MLOAD DUP2 LT PUSH2 0x15E8 JUMPI PUSH2 0x15E8 PUSH2 0x1EF9 JUMP JUMPDEST PUSH1 0x20 MUL PUSH1 0x20 ADD ADD DUP2 SWAP1 MSTORE POP DUP10 DUP2 PUSH1 0x0 DUP2 MLOAD DUP2 LT PUSH2 0x1607 JUMPI PUSH2 0x1607 PUSH2 0x1EF9 JUMP JUMPDEST PUSH1 0x20 MUL PUSH1 0x20 ADD ADD DUP2 SWAP1 MSTORE POP DUP8 DUP2 PUSH1 0x1 DUP2 MLOAD DUP2 LT PUSH2 0x1626 JUMPI PUSH2 0x1626 PUSH2 0x1EF9 JUMP JUMPDEST PUSH1 0x20 MUL PUSH1 0x20 ADD ADD DUP2 SWAP1 MSTORE POP DUP6 DUP2 PUSH1 0x2 DUP2 MLOAD DUP2 LT PUSH2 0x1645 JUMPI PUSH2 0x1645 PUSH2 0x1EF9 JUMP JUMPDEST PUSH1 0x20 MUL PUSH1 0x20 ADD ADD DUP2 SWAP1 MSTORE POP DUP4 DUP2 PUSH1 0x3 DUP2 MLOAD DUP2 LT PUSH2 0x1664 JUMPI PUSH2 0x1664 PUSH2 0x1EF9 JUMP JUMPDEST PUSH1 0x20 MUL PUSH1 0x20 ADD ADD DUP2 SWAP1 MSTORE POP PUSH2 0x1679 DUP3 DUP3 PUSH2 0x1688 JUMP JUMPDEST SWAP12 SWAP11 POP POP POP POP POP POP POP POP POP POP POP JUMP JUMPDEST PUSH1 0x0 DUP2 MLOAD DUP4 MLOAD EQ PUSH2 0x1698 JUMPI PUSH1 0x0 DUP1 REVERT JUMPDEST DUP3 MLOAD PUSH1 0x0 PUSH2 0x16A7 DUP3 PUSH1 0x6 PUSH2 0x1FCC JUMP JUMPDEST SWAP1 POP PUSH1 0x0 DUP2 PUSH8 0xFFFFFFFFFFFFFFFF DUP2 GT ISZERO PUSH2 0x16C4 JUMPI PUSH2 0x16C4 PUSH2 0x1B07 JUMP JUMPDEST PUSH1 0x40 MLOAD SWAP1 DUP1 DUP3 MSTORE DUP1 PUSH1 0x20 MUL PUSH1 0x20 ADD DUP3 ADD PUSH1 0x40 MSTORE DUP1 ISZERO PUSH2 0x16ED JUMPI DUP2 PUSH1 0x20 ADD PUSH1 0x20 DUP3 MUL DUP1 CALLDATASIZE DUP4 CALLDATACOPY ADD SWAP1 POP JUMPDEST POP SWAP1 POP PUSH1 0x0 JUMPDEST DUP4 DUP2 LT ISZERO PUSH2 0x1928 JUMPI DUP7 DUP2 DUP2 MLOAD DUP2 LT PUSH2 0x170D JUMPI PUSH2 0x170D PUSH2 0x1EF9 JUMP JUMPDEST PUSH1 0x20 MUL PUSH1 0x20 ADD ADD MLOAD PUSH1 0x0 ADD MLOAD DUP3 DUP3 PUSH1 0x6 PUSH2 0x1727 SWAP2 SWAP1 PUSH2 0x1FCC JUMP JUMPDEST PUSH2 0x1732 SWAP1 PUSH1 0x0 PUSH2 0x1F60 JUMP JUMPDEST DUP2 MLOAD DUP2 LT PUSH2 0x1742 JUMPI PUSH2 0x1742 PUSH2 0x1EF9 JUMP JUMPDEST PUSH1 0x20 MUL PUSH1 0x20 ADD ADD DUP2 DUP2 MSTORE POP POP DUP7 DUP2 DUP2 MLOAD DUP2 LT PUSH2 0x1760 JUMPI PUSH2 0x1760 PUSH2 0x1EF9 JUMP JUMPDEST PUSH1 0x20 MUL PUSH1 0x20 ADD ADD MLOAD PUSH1 0x20 ADD MLOAD DUP3 DUP3 PUSH1 0x6 PUSH2 0x177A SWAP2 SWAP1 PUSH2 0x1FCC JUMP JUMPDEST PUSH2 0x1785 SWAP1 PUSH1 0x1 PUSH2 0x1F60 JUMP JUMPDEST DUP2 MLOAD DUP2 LT PUSH2 0x1795 JUMPI PUSH2 0x1795 PUSH2 0x1EF9 JUMP JUMPDEST PUSH1 0x20 MUL PUSH1 0x20 ADD ADD DUP2 DUP2 MSTORE POP POP DUP6 DUP2 DUP2 MLOAD DUP2 LT PUSH2 0x17B3 JUMPI PUSH2 0x17B3 PUSH2 0x1EF9 JUMP JUMPDEST PUSH1 0x20 SWAP1 DUP2 MUL SWAP2 SWAP1 SWAP2 ADD DUP2 ADD MLOAD MLOAD ADD MLOAD DUP3 PUSH2 0x17CE DUP4 PUSH1 0x6 PUSH2 0x1FCC JUMP JUMPDEST PUSH2 0x17D9 SWAP1 PUSH1 0x2 PUSH2 0x1F60 JUMP JUMPDEST DUP2 MLOAD DUP2 LT PUSH2 0x17E9 JUMPI PUSH2 0x17E9 PUSH2 0x1EF9 JUMP JUMPDEST PUSH1 0x20 MUL PUSH1 0x20 ADD ADD DUP2 DUP2 MSTORE POP POP DUP6 DUP2 DUP2 MLOAD DUP2 LT PUSH2 0x1807 JUMPI PUSH2 0x1807 PUSH2 0x1EF9 JUMP JUMPDEST PUSH1 0x20 SWAP1 DUP2 MUL SWAP2 SWAP1 SWAP2 ADD ADD MLOAD MLOAD MLOAD DUP3 PUSH2 0x1820 DUP4 PUSH1 0x6 PUSH2 0x1FCC JUMP JUMPDEST PUSH2 0x182B SWAP1 PUSH1 0x3 PUSH2 0x1F60 JUMP JUMPDEST DUP2 MLOAD DUP2 LT PUSH2 0x183B JUMPI PUSH2 0x183B PUSH2 0x1EF9 JUMP JUMPDEST PUSH1 0x20 MUL PUSH1 0x20 ADD ADD DUP2 DUP2 MSTORE POP POP DUP6 DUP2 DUP2 MLOAD DUP2 LT PUSH2 0x1859 JUMPI PUSH2 0x1859 PUSH2 0x1EF9 JUMP JUMPDEST PUSH1 0x20 MUL PUSH1 0x20 ADD ADD MLOAD PUSH1 0x20 ADD MLOAD PUSH1 0x1 PUSH1 0x2 DUP2 LT PUSH2 0x1877 JUMPI PUSH2 0x1877 PUSH2 0x1EF9 JUMP JUMPDEST PUSH1 0x20 MUL ADD MLOAD DUP3 PUSH2 0x1888 DUP4 PUSH1 0x6 PUSH2 0x1FCC JUMP JUMPDEST PUSH2 0x1893 SWAP1 PUSH1 0x4 PUSH2 0x1F60 JUMP JUMPDEST DUP2 MLOAD DUP2 LT PUSH2 0x18A3 JUMPI PUSH2 0x18A3 PUSH2 0x1EF9 JUMP JUMPDEST PUSH1 0x20 MUL PUSH1 0x20 ADD ADD DUP2 DUP2 MSTORE POP POP DUP6 DUP2 DUP2 MLOAD DUP2 LT PUSH2 0x18C1 JUMPI PUSH2 0x18C1 PUSH2 0x1EF9 JUMP JUMPDEST PUSH1 0x20 MUL PUSH1 0x20 ADD ADD MLOAD PUSH1 0x20 ADD MLOAD PUSH1 0x0 PUSH1 0x2 DUP2 LT PUSH2 0x18DF JUMPI PUSH2 0x18DF PUSH2 0x1EF9 JUMP JUMPDEST PUSH1 0x20 MUL ADD MLOAD DUP3 PUSH2 0x18F0 DUP4 PUSH1 0x6 PUSH2 0x1FCC JUMP JUMPDEST PUSH2 0x18FB SWAP1 PUSH1 0x5 PUSH2 0x1F60 JUMP JUMPDEST DUP2 MLOAD DUP2 LT PUSH2 0x190B JUMPI PUSH2 0x190B PUSH2 0x1EF9 JUMP JUMPDEST PUSH1 0x20 SWAP1 DUP2 MUL SWAP2 SWAP1 SWAP2 ADD ADD MSTORE DUP1 PUSH2 0x1920 DUP2 PUSH2 0x1F78 JUMP JUMPDEST SWAP2 POP POP PUSH2 0x16F3 JUMP JUMPDEST POP PUSH2 0x1931 PUSH2 0x1AB8 JUMP JUMPDEST PUSH1 0x0 PUSH1 0x20 DUP3 PUSH1 0x20 DUP7 MUL PUSH1 0x20 DUP7 ADD PUSH1 0x8 PUSH2 0x7D0 GAS SUB STATICCALL SWAP1 POP DUP1 DUP1 ISZERO PUSH2 0x13EF JUMPI POP DUP1 PUSH2 0x195A JUMPI PUSH1 0x0 DUP1 REVERT JUMPDEST POP MLOAD ISZERO ISZERO SWAP7 SWAP6 POP POP POP POP POP POP JUMP JUMPDEST DUP3 PUSH1 0x2 DUP2 ADD SWAP3 DUP3 ISZERO PUSH2 0x19AA JUMPI SWAP2 PUSH1 0x20 MUL DUP3 ADD JUMPDEST DUP3 DUP2 GT ISZERO PUSH2 0x19AA JUMPI DUP3 MLOAD DUP3 SWAP1 PUSH16 0xFFFFFFFFFFFFFFFFFFFFFFFFFFFFFFFF AND SWAP1 SSTORE SWAP2 PUSH1 0x20 ADD SWAP2 SWAP1 PUSH1 0x1 ADD SWAP1 PUSH2 0x197B JUMP JUMPDEST POP PUSH2 0x19B6 SWAP3 SWAP2 POP PUSH2 0x1AD6 JUMP JUMPDEST POP SWAP1 JUMP JUMPDEST DUP3 PUSH1 0x2 DUP2 ADD SWAP3 DUP3 ISZERO PUSH2 0x19AA JUMPI SWAP2 PUSH1 0x20 MUL DUP3 ADD JUMPDEST DUP3 DUP2 GT ISZERO PUSH2 0x19AA JUMPI DUP3 MLOAD DUP3 SSTORE SWAP2 PUSH1 0x20 ADD SWAP2 SWAP1 PUSH1 0x1 ADD SWAP1 PUSH2 0x19CD JUMP JUMPDEST PUSH1 0x40 MLOAD DUP1 PUSH1 0x40 ADD PUSH1 0x40 MSTORE DUP1 PUSH1 0x2 SWAP1 PUSH1 0x20 DUP3 MUL DUP1 CALLDATASIZE DUP4 CALLDATACOPY POP SWAP2 SWAP3 SWAP2 POP POP JUMP JUMPDEST PUSH1 0x40 DUP1 MLOAD PUSH1 0xE0 DUP2 ADD SWAP1 SWAP2 MSTORE PUSH1 0x0 PUSH1 0xA0 DUP3 ADD DUP2 DUP2 MSTORE PUSH1 0xC0 DUP4 ADD SWAP2 SWAP1 SWAP2 MSTORE DUP2 MSTORE PUSH1 0x20 DUP2 ADD PUSH2 0x1A30 PUSH2 0x1A93 JUMP JUMPDEST DUP2 MSTORE PUSH1 0x20 ADD PUSH2 0x1A3D PUSH2 0x1A93 JUMP JUMPDEST DUP2 MSTORE PUSH1 0x20 ADD PUSH2 0x1A4A PUSH2 0x1A93 JUMP JUMPDEST DUP2 MSTORE PUSH1 0x20 ADD PUSH1 0x60 DUP2 MSTORE POP SWAP1 JUMP JUMPDEST PUSH1 0x40 MLOAD DUP1 PUSH1 0x60 ADD PUSH1 0x40 MSTORE DUP1 PUSH1 0x3 SWAP1 PUSH1 0x20 DUP3 MUL DUP1 CALLDATASIZE DUP4 CALLDATACOPY POP SWAP2 SWAP3 SWAP2 POP POP JUMP JUMPDEST PUSH1 0x40 MLOAD DUP1 PUSH1 0x80 ADD PUSH1 0x40 MSTORE DUP1 PUSH1 0x4 SWAP1 PUSH1 0x20 DUP3 MUL DUP1 CALLDATASIZE DUP4 CALLDATACOPY POP SWAP2 SWAP3 SWAP2 POP POP JUMP JUMPDEST PUSH1 0x40 MLOAD DUP1 PUSH1 0x40 ADD PUSH1 0x40 MSTORE DUP1 PUSH2 0x1AA6 PUSH2 0x19E8 JUMP JUMPDEST DUP2 MSTORE PUSH1 0x20 ADD PUSH2 0x1AB3 PUSH2 0x19E8 JUMP JUMPDEST SWAP1 MSTORE SWAP1 JUMP JUMPDEST PUSH1 0x40 MLOAD DUP1 PUSH1 0x20 ADD PUSH1 0x40 MSTORE DUP1 PUSH1 0x1 SWAP1 PUSH1 0x20 DUP3 MUL DUP1 CALLDATASIZE DUP4 CALLDATACOPY POP SWAP2 SWAP3 SWAP2 POP POP JUMP JUMPDEST JUMPDEST DUP1 DUP3 GT ISZERO PUSH2 0x19B6 JUMPI PUSH1 0x0 DUP2 SSTORE PUSH1 0x1 ADD PUSH2 0x1AD7 JUMP JUMPDEST DUP1 CALLDATALOAD PUSH1 0x1 PUSH1 0x1 PUSH1 0xA0 SHL SUB DUP2 AND DUP2 EQ PUSH2 0x1B02 JUMPI PUSH1 0x0 DUP1 REVERT JUMPDEST SWAP2 SWAP1 POP JUMP JUMPDEST PUSH4 0x4E487B71 PUSH1 0xE0 SHL PUSH1 0x0 MSTORE PUSH1 0x41 PUSH1 0x4 MSTORE PUSH1 0x24 PUSH1 0x0 REVERT JUMPDEST PUSH1 0x0 PUSH1 0x40 DUP3 DUP5 SUB SLT ISZERO PUSH2 0x1B2F JUMPI PUSH1 0x0 DUP1 REVERT JUMPDEST PUSH1 0x40 MLOAD PUSH1 0x40 DUP2 ADD DUP2 DUP2 LT PUSH8 0xFFFFFFFFFFFFFFFF DUP3 GT OR ISZERO PUSH2 0x1B52 JUMPI PUSH2 0x1B52 PUSH2 0x1B07 JUMP JUMPDEST PUSH1 0x40 MSTORE DUP3 CALLDATALOAD DUP2 MSTORE PUSH1 0x20 SWAP3 DUP4 ADD CALLDATALOAD SWAP3 DUP2 ADD SWAP3 SWAP1 SWAP3 MSTORE POP SWAP2 SWAP1 POP JUMP JUMPDEST PUSH1 0x0 DUP3 PUSH1 0x1F DUP4 ADD SLT PUSH2 0x1B7D JUMPI PUSH1 0x0 DUP1 REVERT JUMPDEST PUSH1 0x40 MLOAD PUSH1 0x40 DUP2 ADD DUP2 DUP2 LT PUSH8 0xFFFFFFFFFFFFFFFF DUP3 GT OR ISZERO PUSH2 0x1BA0 JUMPI PUSH2 0x1BA0 PUSH2 0x1B07 JUMP JUMPDEST DUP1 PUSH1 0x40 MSTORE POP DUP1 PUSH1 0x40 DUP5 ADD DUP6 DUP2 GT ISZERO PUSH2 0x1BB7 JUMPI PUSH1 0x0 DUP1 REVERT JUMPDEST DUP5 JUMPDEST DUP2 DUP2 LT ISZERO PUSH2 0x1BD1 JUMPI DUP1 CALLDATALOAD DUP4 MSTORE PUSH1 0x20 SWAP3 DUP4 ADD SWAP3 ADD PUSH2 0x1BB9 JUMP JUMPDEST POP SWAP2 SWAP6 SWAP5 POP POP POP POP POP JUMP JUMPDEST PUSH1 0x0 DUP2 DUP4 SUB PUSH2 0x100 DUP2 SLT ISZERO PUSH2 0x1BF0 JUMPI PUSH1 0x0 DUP1 REVERT JUMPDEST PUSH1 0x40 DUP1 MLOAD PUSH1 0x60 DUP2 ADD PUSH8 0xFFFFFFFFFFFFFFFF DUP3 DUP3 LT DUP2 DUP4 GT OR ISZERO PUSH2 0x1C15 JUMPI PUSH2 0x1C15 PUSH2 0x1B07 JUMP JUMPDEST DUP2 DUP5 MSTORE DUP3 SWAP6 POP PUSH2 0x1C25 DUP9 DUP9 PUSH2 0x1B1D JUMP JUMPDEST DUP4 MSTORE PUSH1 0x80 PUSH1 0x3F NOT DUP7 ADD SLT ISZERO PUSH2 0x1C39 JUMPI PUSH1 0x0 DUP1 REVERT JUMPDEST DUP4 MLOAD SWAP5 POP DUP4 DUP6 ADD SWAP2 POP DUP5 DUP3 LT DUP2 DUP4 GT OR ISZERO PUSH2 0x1C56 JUMPI PUSH2 0x1C56 PUSH2 0x1B07 JUMP JUMPDEST POP DUP3 MSTORE PUSH2 0x1C65 DUP7 DUP7 DUP5 ADD PUSH2 0x1B6C JUMP JUMPDEST DUP4 MSTORE PUSH2 0x1C74 DUP7 PUSH1 0x80 DUP8 ADD PUSH2 0x1B6C JUMP JUMPDEST PUSH1 0x20 DUP5 ADD MSTORE DUP3 PUSH1 0x20 DUP3 ADD MSTORE PUSH2 0x1C8C DUP7 PUSH1 0xC0 DUP8 ADD PUSH2 0x1B1D JUMP JUMPDEST SWAP2 ADD MSTORE POP SWAP3 SWAP2 POP POP JUMP JUMPDEST PUSH1 0x0 DUP1 PUSH1 0x0 DUP1 PUSH1 0x0 DUP1 PUSH1 0x0 DUP1 PUSH1 0x0 DUP1 PUSH2 0x300 DUP12 DUP14 SUB SLT ISZERO PUSH2 0x1CB6 JUMPI PUSH1 0x0 DUP1 REVERT JUMPDEST PUSH2 0x1CBF DUP12 PUSH2 0x1AEB JUMP JUMPDEST SWAP10 POP PUSH2 0x1CCE DUP13 PUSH1 0x20 DUP14 ADD PUSH2 0x1BDC JUMP JUMPDEST SWAP9 POP PUSH2 0x1CDE DUP13 PUSH2 0x120 DUP14 ADD PUSH2 0x1BDC JUMP JUMPDEST SWAP10 SWAP13 SWAP9 SWAP12 POP SWAP9 SWAP10 PUSH2 0x220 DUP2 ADD CALLDATALOAD SWAP10 POP PUSH2 0x240 DUP2 ADD CALLDATALOAD SWAP9 PUSH2 0x260 DUP3 ADD CALLDATALOAD SWAP9 POP PUSH2 0x280 DUP3 ADD CALLDATALOAD SWAP8 POP PUSH2 0x2A0 DUP3 ADD CALLDATALOAD SWAP7 POP PUSH2 0x2C0 DUP3 ADD CALLDATALOAD SWAP6 POP PUSH2 0x2E0 SWAP1 SWAP2 ADD CALLDATALOAD SWAP4 POP SWAP2 POP POP JUMP JUMPDEST PUSH1 0x0 PUSH1 0x20 DUP1 DUP4 MSTORE DUP4 MLOAD DUP1 DUP3 DUP6 ADD MSTORE PUSH1 0x0 JUMPDEST DUP2 DUP2 LT ISZERO PUSH2 0x1D4F JUMPI DUP6 DUP2 ADD DUP4 ADD MLOAD DUP6 DUP3 ADD PUSH1 0x40 ADD MSTORE DUP3 ADD PUSH2 0x1D33 JUMP JUMPDEST DUP2 DUP2 GT ISZERO PUSH2 0x1D61 JUMPI PUSH1 0x0 PUSH1 0x40 DUP4 DUP8 ADD ADD MSTORE JUMPDEST POP PUSH1 0x1F ADD PUSH1 0x1F NOT AND SWAP3 SWAP1 SWAP3 ADD PUSH1 0x40 ADD SWAP4 SWAP3 POP POP POP JUMP JUMPDEST PUSH1 0x0 DUP1 PUSH1 0x40 DUP4 DUP6 SUB SLT ISZERO PUSH2 0x1D8A JUMPI PUSH1 0x0 DUP1 REVERT JUMPDEST PUSH2 0x1D93 DUP4 PUSH2 0x1AEB JUMP JUMPDEST SWAP5 PUSH1 0x20 SWAP4 SWAP1 SWAP4 ADD CALLDATALOAD SWAP4 POP POP POP JUMP JUMPDEST PUSH1 0x0 PUSH1 0x20 DUP3 DUP5 SUB SLT ISZERO PUSH2 0x1DB3 JUMPI PUSH1 0x0 DUP1 REVERT JUMPDEST PUSH2 0x1DBC DUP3 PUSH2 0x1AEB JUMP JUMPDEST SWAP4 SWAP3 POP POP POP JUMP JUMPDEST PUSH1 0x40 DUP2 ADD DUP2 DUP4 PUSH1 0x0 JUMPDEST PUSH1 0x2 DUP2 LT ISZERO PUSH2 0x1DEB JUMPI DUP2 MLOAD DUP4 MSTORE PUSH1 0x20 SWAP3 DUP4 ADD SWAP3 SWAP1 SWAP2 ADD SWAP1 PUSH1 0x1 ADD PUSH2 0x1DCC JUMP JUMPDEST POP POP POP SWAP3 SWAP2 POP POP JUMP JUMPDEST PUSH1 0x0 DUP1 PUSH1 0x0 PUSH1 0x60 DUP5 DUP7 SUB SLT ISZERO PUSH2 0x1E09 JUMPI PUSH1 0x0 DUP1 REVERT JUMPDEST PUSH2 0x1E12 DUP5 PUSH2 0x1AEB JUMP JUMPDEST SWAP3 POP PUSH2 0x1E20 PUSH1 0x20 DUP6 ADD PUSH2 0x1AEB JUMP JUMPDEST SWAP2 POP PUSH1 0x40 DUP5 ADD CALLDATALOAD SWAP1 POP SWAP3 POP SWAP3 POP SWAP3 JUMP JUMPDEST PUSH1 0x0 DUP1 PUSH1 0x40 DUP4 DUP6 SUB SLT ISZERO PUSH2 0x1E43 JUMPI PUSH1 0x0 DUP1 REVERT JUMPDEST PUSH2 0x1E4C DUP4 PUSH2 0x1AEB JUMP JUMPDEST SWAP2 POP PUSH2 0x1E5A PUSH1 0x20 DUP5 ADD PUSH2 0x1AEB JUMP JUMPDEST SWAP1 POP SWAP3 POP SWAP3 SWAP1 POP JUMP JUMPDEST PUSH1 0x0 DUP1 PUSH2 0x200 DUP1 DUP5 DUP7 SUB SLT ISZERO PUSH2 0x1E78 JUMPI PUSH1 0x0 DUP1 REVERT JUMPDEST PUSH2 0x1E82 DUP6 DUP6 PUSH2 0x1BDC JUMP JUMPDEST SWAP3 POP PUSH2 0x100 DUP6 PUSH2 0x11F DUP7 ADD SLT PUSH2 0x1E97 JUMPI PUSH1 0x0 DUP1 REVERT JUMPDEST PUSH1 0x40 MLOAD DUP2 DUP2 ADD DUP2 DUP2 LT PUSH8 0xFFFFFFFFFFFFFFFF DUP3 GT OR ISZERO PUSH2 0x1EB9 JUMPI PUSH2 0x1EB9 PUSH2 0x1B07 JUMP JUMPDEST PUSH1 0x40 MSTORE SWAP2 DUP6 ADD SWAP2 DUP1 DUP8 DUP5 GT ISZERO PUSH2 0x1ECE JUMPI PUSH1 0x0 DUP1 REVERT JUMPDEST SWAP2 DUP7 ADD SWAP2 JUMPDEST DUP4 DUP4 LT ISZERO PUSH2 0x1EEB JUMPI DUP3 CALLDATALOAD DUP2 MSTORE PUSH1 0x20 SWAP3 DUP4 ADD SWAP3 ADD PUSH2 0x1ED3 JUMP JUMPDEST POP DUP1 SWAP4 POP POP POP POP SWAP3 POP SWAP3 SWAP1 POP JUMP JUMPDEST PUSH4 0x4E487B71 PUSH1 0xE0 SHL PUSH1 0x0 MSTORE PUSH1 0x32 PUSH1 0x4 MSTORE PUSH1 0x24 PUSH1 0x0 REVERT JUMPDEST PUSH1 0x1 DUP2 DUP2 SHR SWAP1 DUP3 AND DUP1 PUSH2 0x1F23 JUMPI PUSH1 0x7F DUP3 AND SWAP2 POP JUMPDEST PUSH1 0x20 DUP3 LT DUP2 EQ ISZERO PUSH2 0x1F44 JUMPI PUSH4 0x4E487B71 PUSH1 0xE0 SHL PUSH1 0x0 MSTORE PUSH1 0x22 PUSH1 0x4 MSTORE PUSH1 0x24 PUSH1 0x0 REVERT JUMPDEST POP SWAP2 SWAP1 POP JUMP JUMPDEST PUSH4 0x4E487B71 PUSH1 0xE0 SHL PUSH1 0x0 MSTORE PUSH1 0x11 PUSH1 0x4 MSTORE PUSH1 0x24 PUSH1 0x0 REVERT JUMPDEST PUSH1 0x0 DUP3 NOT DUP3 GT ISZERO PUSH2 0x1F73 JUMPI PUSH2 0x1F73 PUSH2 0x1F4A JUMP JUMPDEST POP ADD SWAP1 JUMP JUMPDEST PUSH1 0x0 PUSH1 0x0 NOT DUP3 EQ ISZERO PUSH2 0x1F8C JUMPI PUSH2 0x1F8C PUSH2 0x1F4A JUMP JUMPDEST POP PUSH1 0x1 ADD SWAP1 JUMP JUMPDEST PUSH1 0x0 DUP3 PUSH2 0x1FB0 JUMPI PUSH4 0x4E487B71 PUSH1 0xE0 SHL PUSH1 0x0 MSTORE PUSH1 0x12 PUSH1 0x4 MSTORE PUSH1 0x24 PUSH1 0x0 REVERT JUMPDEST POP MOD SWAP1 JUMP JUMPDEST PUSH1 0x0 DUP3 DUP3 LT ISZERO PUSH2 0x1FC7 JUMPI PUSH2 0x1FC7 PUSH2 0x1F4A JUMP JUMPDEST POP SUB SWAP1 JUMP JUMPDEST PUSH1 0x0 DUP2 PUSH1 0x0 NOT DIV DUP4 GT DUP3 ISZERO ISZERO AND ISZERO PUSH2 0x1FE6 JUMPI PUSH2 0x1FE6 PUSH2 0x1F4A JUMP JUMPDEST POP MUL SWAP1 JUMP INVALID LOG2 PUSH5 0x6970667358 0x22 SLT KECCAK256 0x4B 0xA7 0x1F LOG3 0x2A PUSH8 0x1C2889584A74460F 0x2E 0xEA DUP6 0xB2 0xD1 0xCB SWAP4 CODECOPY 0x5C PUSH21 0x7214DC9B3DCB7D1764736F6C634300080B00330000 ",
  "sha1": "2a7d69a771004fd2f4bd2fd586d7b8afc0738699",
  "source": "// SPDX-License-Identifier: MIT\n\npragma solidity ^0.8.0;\n\nimport \"@openzeppelin/contracts/token/ERC20/ERC20.sol\";\nimport \"./Verifier.sol\";\n\ncontract Confidential is ERC20, Verifier{\n\n    mapping (address => uint[2]) balanceHashes;\n\n    constructor(uint256 initialSupply) ERC20(\"TOKEN\", \"SS\"){\n\n    _mint(msg.sender, initialSupply);\n    balanceHashes[msg.sender] =   [267155370138219963795935159289233917406, 297982103872684426429258885425731138599];\n\n    }\n\n    function TRANFER(address _to, Proof memory proofSender, Proof memory proofReceiver, uint hashSenderBalanceAfter_1, uint hashSenderBalanceAfter_2, uint hashValue_1, uint hashValue_2, uint hashReceiverBalanceAfter_1, uint hashReceiverBalanceAfter_2, uint boo) public {\n\n    address to = _to;     \n\n    uint[2] memory hashSenderBalanceBefore = balanceHashes[msg.sender];\n    if(balanceHashes[to][0] == uint(0) && balanceHashes[to][1] == uint(0)){\n        balanceHashes[to] = [326522724692461750427768532537390503835, 89059515727727869117346995944635890507];\n    }\n    \n    uint[2] memory hashReceiverBalanceBefore = balanceHashes[_to];\n    uint[8] memory inputSender = [uint(0), hashSenderBalanceBefore[0], hashSenderBalanceBefore[1], hashSenderBalanceAfter_1, hashSenderBalanceAfter_2, hashValue_1, hashValue_2, boo];\n    uint[8] memory inputReceiver = [uint(1), hashReceiverBalanceBefore[0], hashReceiverBalanceBefore[1], hashReceiverBalanceAfter_1, hashReceiverBalanceAfter_2, hashValue_1, hashValue_2, boo];\n\n    bool senderProofIsCorrect = verifyTx(proofSender, inputSender);\n    bool receiverProofIsCorrect = verifyTx(proofReceiver, inputReceiver); \n\n    if (senderProofIsCorrect && receiverProofIsCorrect){\n\n        balanceHashes[msg.sender] = [hashSenderBalanceAfter_1, hashSenderBalanceAfter_2];\n        balanceHashes[to] = [hashReceiverBalanceAfter_1, hashReceiverBalanceAfter_2];\n\n    }\n\n    }\n\n    function BALANCE_OF(address _account) public view returns (uint[2] memory){\n\n        return balanceHashes[_account];\n    \n    }\n\n\n\n\n\n}\n\n",
  "sourcePath": "contracts/Conf.sol",
  "type": "contract"
}