{
  "abi": [
    {
      "inputs": [
        {
          "components": [
            {
              "components": [
                {
                  "internalType": "uint256",
                  "name": "X",
                  "type": "uint256"
                },
                {
                  "internalType": "uint256",
                  "name": "Y",
                  "type": "uint256"
                }
              ],
              "internalType": "struct Pairing.G1Point",
              "name": "a",
              "type": "tuple"
            },
            {
              "components": [
                {
                  "internalType": "uint256[2]",
                  "name": "X",
                  "type": "uint256[2]"
                },
                {
                  "internalType": "uint256[2]",
                  "name": "Y",
                  "type": "uint256[2]"
                }
              ],
              "internalType": "struct Pairing.G2Point",
              "name": "b",
              "type": "tuple"
            },
            {
              "components": [
                {
                  "internalType": "uint256",
                  "name": "X",
                  "type": "uint256"
                },
                {
                  "internalType": "uint256",
                  "name": "Y",
                  "type": "uint256"
                }
              ],
              "internalType": "struct Pairing.G1Point",
              "name": "c",
              "type": "tuple"
            }
          ],
          "internalType": "struct Verifier.Proof",
          "name": "proof",
          "type": "tuple"
        },
        {
          "internalType": "uint256[8]",
          "name": "input",
          "type": "uint256[8]"
        }
      ],
      "name": "verifyTx",
      "outputs": [
        {
          "internalType": "bool",
          "name": "r",
          "type": "bool"
        }
      ],
      "stateMutability": "view",
      "type": "function"
    }
  ],
  "bytecode": "608060405234801561001057600080fd5b50611312806100206000396000f3fe608060405234801561001057600080fd5b506004361061002b5760003560e01c8063f1942cd114610030575b600080fd5b61004361003e36600461116e565b610057565b604051901515815260200160405180910390f35b6040805160088082526101208201909252600091829190602082016101008036833701905050905060005b60088110156100d15783816008811061009d5761009d611225565b60200201518282815181106100b4576100b4611225565b6020908102919091010152806100c981611251565b915050610082565b506100dc81856100f6565b6100ea5760019150506100f0565b60009150505b92915050565b60007f30644e72e131a029b85045b68181585d2833e84879b9709143e1f593f000000181610122610279565b905080608001515185516001610138919061126c565b1461014257600080fd5b604080518082019091526000808252602082018190525b86518110156101f0578387828151811061017557610175611225565b60200260200101511061018757600080fd5b6101dc826101d785608001518460016101a0919061126c565b815181106101b0576101b0611225565b60200260200101518a85815181106101ca576101ca611225565b6020026020010151610956565b6109ba565b9150806101e881611251565b915050610159565b5061021981836080015160008151811061020c5761020c611225565b60200260200101516109ba565b905061025d8560000151866020015161023184610a14565b85604001516102438a60400151610a14565b6060880151885161025390610a14565b8960200151610ab3565b61026d57600193505050506100f0565b50600095945050505050565b610281610f1e565b6040805180820182527f06f6a9234f37b768ed85404cb0e1545ce3f74ab4f6ac123f0195c7ee888dcdee81527f2547046e40cdb7225efacf433452eee46703bd7b34d615ad0aebfa6a2b8f2e976020808301919091529083528151608080820184527f17db565cfc86adaaedb90e183bb9de4978f9ac2cc25317899df2b76fcb26b5c38285019081527f26932b0217d1919cdccd0509e9ebeb8c2e62eaa646ff3eaee8cb337255198c98606080850191909152908352845180860186527f28b5996e4439774fae5eedf820a7648c8e4a762ea907c5411ec4a5cbfd104b7781527f2121442a2453a1d927b4493a42c06528b72908731d39f13a865d54a0803769dc818601528385015285840192909252835180820185527f1e5505a4e704260e7051ad2cc6fd538bbf5020ac66824641af5ee05fb19d78fe8186019081527f2e2ed78451d277c6b52a9e02f745990123eb529028e637c3acafc23e16cf0e1d828501528152845180860186527f2b4cd9bb8751afaf2f6a46e66ae6f59d9233338766646ba9ed2a7509b4a4220f81527f221ed174c7be03a5c2e1ac3f220c54dba4c5ab20b356bab44eba1d5482d8a792818601528185015285850152835190810184527f2ca48ba98112207b2034004925f442e2b03426d99b72c22a861e9e7aa66d7ccf8185019081527f01293639ff81e8a13ccfca65f99d2cf1d8c211f05c8b2092d971b5b0dbb520c4828401528152835180850185527f15ae9a012ee94d8d19170faa2973336c8a32e978919b114c1c416117ccbc2c2481527f073f7bded8ec941d931e559d46e32064befd8506274f491dc33f09a4ad27dc68818501528184015290840152815160098082526101408201909352919082015b60408051808201909152600080825260208201528152602001906001900390816104fd57505060808201908152604080518082019091527f07834ceb6ae05574a2e81ba48669cec245b20310bf971330007ff321377fd27a81527f28debdeadc1f38e58516baefba67a91b60c9f86f2cb49a434de82840cb8cdb7a60208201529051805160009061059057610590611225565b602002602001018190525060405180604001604052807f194f7ebfe8a86ae4188e9045fd47f133f93a3a49eea93d7cc57e2d96fc29bea981526020017f02d102a4e456d37365ce5f1a079acb34d7e35cc60fb428a7e293c36e8882d146815250816080015160018151811061060757610607611225565b602002602001018190525060405180604001604052807f1594faa95ac67b59c1961f3ef62e8fbf9949ffca39a471ddd325633e2a68a31381526020017f01d4ac07d85e3e69b4d647147f5b75b0c1513cd778b09b49ec577f31574ed6c1815250816080015160028151811061067e5761067e611225565b602002602001018190525060405180604001604052807f0f09986445bb2d34e8b8638be962994a615af5b0d07b75561c27d549e7bf2cfa81526020017f141a0cdb3adf0cbfbb11d8eda48f458db640ad177f0360b128294b768479f68281525081608001516003815181106106f5576106f5611225565b602002602001018190525060405180604001604052807f09cb55c9319ccc4cc148e6f5da8b1015ade818216177798c22af714e8e83a43081526020017f1073c9189f271abe6ccb93bd67a934d8eac725371980b01b236571113d5c4696815250816080015160048151811061076c5761076c611225565b602002602001018190525060405180604001604052807f2d5aacfd8311b26b8b649d3c879732cecb68aae180f8c5180a50b55455eeb97a81526020017f104ce9133e0aa0d6c87490cc6f63deef93119021de69e4e5cc9c6e1d6564ffe281525081608001516005815181106107e3576107e3611225565b602002602001018190525060405180604001604052807f0ca6e9aaa79dfe30b7431d32b766ddb57ca2fb5cb886376d8708d3ed159ab31381526020017f03f384e39cfa0f68a88f7e5cd17641f470163c0729f5725bfbb0e7ccbf73141c815250816080015160068151811061085a5761085a611225565b602002602001018190525060405180604001604052807f131074b4d6f338451859165de81ed0e2dc4c6d985bf54940af13b3a258a0010f81526020017f1798edd77563f61521ce0aa7c3c77c605c1c646126983a249088424e29270b4c81525081608001516007815181106108d1576108d1611225565b602002602001018190525060405180604001604052807f2ba65d1fc956fa23b052321b437122cef3f0b893cd5b07e40348c410146b52ea81526020017f16f3fd9b943b6b559727c3d1404e828a3f50444f4013b307127643646ee00d4f815250816080015160088151811061094857610948611225565b602002602001018190525090565b6040805180820190915260008082526020820152610972610f6f565b835181526020808501519082015260408101839052600060608360808460076107d05a03fa90508080156109a5576109a7565bfe5b50806109b257600080fd5b505092915050565b60408051808201909152600080825260208201526109d6610f8d565b8351815260208085015181830152835160408301528301516060808301919091526000908360c08460066107d05a03fa90508080156109a5576109a7565b604080518082019091526000808252602082015281517f30644e72e131a029b85045b68181585d97816a916871ca8d3c208c16d87cfd4790158015610a5b57506020830151155b15610a7b5750506040805180820190915260008082526020820152919050565b604051806040016040528084600001518152602001828560200151610aa09190611284565b610aaa90846112a6565b90529392505050565b60408051600480825260a08201909252600091829190816020015b6040805180820190915260008082526020820152815260200190600190039081610ace57505060408051600480825260a0820190925291925060009190602082015b610b18610fab565b815260200190600190039081610b105790505090508a82600081518110610b4157610b41611225565b60200260200101819052508882600181518110610b6057610b60611225565b60200260200101819052508682600281518110610b7f57610b7f611225565b60200260200101819052508482600381518110610b9e57610b9e611225565b60200260200101819052508981600081518110610bbd57610bbd611225565b60200260200101819052508781600181518110610bdc57610bdc611225565b60200260200101819052508581600281518110610bfb57610bfb611225565b60200260200101819052508381600381518110610c1a57610c1a611225565b6020026020010181905250610c2f8282610c3e565b9b9a5050505050505050505050565b60008151835114610c4e57600080fd5b82516000610c5d8260066112bd565b905060008167ffffffffffffffff811115610c7a57610c7a61100c565b604051908082528060200260200182016040528015610ca3578160200160208202803683370190505b50905060005b83811015610ede57868181518110610cc357610cc3611225565b60200260200101516000015182826006610cdd91906112bd565b610ce890600061126c565b81518110610cf857610cf8611225565b602002602001018181525050868181518110610d1657610d16611225565b60200260200101516020015182826006610d3091906112bd565b610d3b90600161126c565b81518110610d4b57610d4b611225565b602002602001018181525050858181518110610d6957610d69611225565b60209081029190910181015151015182610d848360066112bd565b610d8f90600261126c565b81518110610d9f57610d9f611225565b602002602001018181525050858181518110610dbd57610dbd611225565b6020908102919091010151515182610dd68360066112bd565b610de190600361126c565b81518110610df157610df1611225565b602002602001018181525050858181518110610e0f57610e0f611225565b602002602001015160200151600160028110610e2d57610e2d611225565b602002015182610e3e8360066112bd565b610e4990600461126c565b81518110610e5957610e59611225565b602002602001018181525050858181518110610e7757610e77611225565b602002602001015160200151600060028110610e9557610e95611225565b602002015182610ea68360066112bd565b610eb190600561126c565b81518110610ec157610ec1611225565b602090810291909101015280610ed681611251565b915050610ca9565b50610ee7610fd0565b6000602082602086026020860160086107d05a03fa90508080156109a5575080610f1057600080fd5b505115159695505050505050565b6040805160e08101909152600060a0820181815260c0830191909152815260208101610f48610fab565b8152602001610f55610fab565b8152602001610f62610fab565b8152602001606081525090565b60405180606001604052806003906020820280368337509192915050565b60405180608001604052806004906020820280368337509192915050565b6040518060400160405280610fbe610fee565b8152602001610fcb610fee565b905290565b60405180602001604052806001906020820280368337509192915050565b60405180604001604052806002906020820280368337509192915050565b634e487b7160e01b600052604160045260246000fd5b6040516060810167ffffffffffffffff811182821017156110455761104561100c565b60405290565b6040805190810167ffffffffffffffff811182821017156110455761104561100c565b60006040828403121561108057600080fd5b6040516040810181811067ffffffffffffffff821117156110a3576110a361100c565b604052823581526020928301359281019290925250919050565b600060405161010080820182811067ffffffffffffffff821117156110e4576110e461100c565b60405290915081908301848111156110fb57600080fd5b835b818110156111155780358352602092830192016110fd565b50505092915050565b600082601f83011261112f57600080fd5b61113761104b565b80604084018581111561114957600080fd5b845b8181101561116357803584526020938401930161114b565b509095945050505050565b60008082840361020081121561118357600080fd5b6101008082121561119357600080fd5b61119b611022565b6111a5878761106e565b81526080603f19840112156111b957600080fd5b6111c161104b565b92506111d0876040880161111e565b83526111df876080880161111e565b60208401528260208201526111f78760c0880161106e565b6040820152935061011f8501861361120e57600080fd5b61121a868287016110bd565b925050509250929050565b634e487b7160e01b600052603260045260246000fd5b634e487b7160e01b600052601160045260246000fd5b60006000198214156112655761126561123b565b5060010190565b6000821982111561127f5761127f61123b565b500190565b6000826112a157634e487b7160e01b600052601260045260246000fd5b500690565b6000828210156112b8576112b861123b565b500390565b60008160001904831182151516156112d7576112d761123b565b50029056fea26469706673582212200f82b082dd74da420e6485afc0baff8248f0ffd98c6ded27b66cf225caf279cb64736f6c634300080b0033",
  "bytecodeSha1": "f530b5d432ce55055009ab74993ef0578fbb1497",
  "compiler": {
    "evm_version": "istanbul",
    "optimizer": {
      "enabled": true,
      "runs": 200
    },
    "version": "0.8.11+commit.d7f03943"
  },
  "contractName": "Verifier",
  "language": "Solidity",
  "natspec": {
    "kind": "dev",
    "methods": {},
    "version": 1
  },
  "opcodes": "PUSH1 0x80 PUSH1 0x40 MSTORE CALLVALUE DUP1 ISZERO PUSH2 0x10 JUMPI PUSH1 0x0 DUP1 REVERT JUMPDEST POP PUSH1 0x4 CALLDATASIZE LT PUSH2 0x2B JUMPI PUSH1 0x0 CALLDATALOAD PUSH1 0xE0 SHR DUP1 PUSH4 0xF1942CD1 EQ PUSH2 0x30 JUMPI JUMPDEST PUSH1 0x0 DUP1 REVERT JUMPDEST PUSH2 0x43 PUSH2 0x3E CALLDATASIZE PUSH1 0x4 PUSH2 0x116E JUMP JUMPDEST PUSH2 0x57 JUMP JUMPDEST PUSH1 0x40 MLOAD SWAP1 ISZERO ISZERO DUP2 MSTORE PUSH1 0x20 ADD PUSH1 0x40 MLOAD DUP1 SWAP2 SUB SWAP1 RETURN JUMPDEST PUSH1 0x40 DUP1 MLOAD PUSH1 0x8 DUP1 DUP3 MSTORE PUSH2 0x120 DUP3 ADD SWAP1 SWAP3 MSTORE PUSH1 0x0 SWAP2 DUP3 SWAP2 SWAP1 PUSH1 0x20 DUP3 ADD PUSH2 0x100 DUP1 CALLDATASIZE DUP4 CALLDATACOPY ADD SWAP1 POP POP SWAP1 POP PUSH1 0x0 JUMPDEST PUSH1 0x8 DUP2 LT ISZERO PUSH2 0xD1 JUMPI DUP4 DUP2 PUSH1 0x8 DUP2 LT PUSH2 0x9D JUMPI PUSH2 0x9D PUSH2 0x1225 JUMP JUMPDEST PUSH1 0x20 MUL ADD MLOAD DUP3 DUP3 DUP2 MLOAD DUP2 LT PUSH2 0xB4 JUMPI PUSH2 0xB4 PUSH2 0x1225 JUMP JUMPDEST PUSH1 0x20 SWAP1 DUP2 MUL SWAP2 SWAP1 SWAP2 ADD ADD MSTORE DUP1 PUSH2 0xC9 DUP2 PUSH2 0x1251 JUMP JUMPDEST SWAP2 POP POP PUSH2 0x82 JUMP JUMPDEST POP PUSH2 0xDC DUP2 DUP6 PUSH2 0xF6 JUMP JUMPDEST PUSH2 0xEA JUMPI PUSH1 0x1 SWAP2 POP POP PUSH2 0xF0 JUMP JUMPDEST PUSH1 0x0 SWAP2 POP POP JUMPDEST SWAP3 SWAP2 POP POP JUMP JUMPDEST PUSH1 0x0 PUSH32 0x30644E72E131A029B85045B68181585D2833E84879B9709143E1F593F0000001 DUP2 PUSH2 0x122 PUSH2 0x279 JUMP JUMPDEST SWAP1 POP DUP1 PUSH1 0x80 ADD MLOAD MLOAD DUP6 MLOAD PUSH1 0x1 PUSH2 0x138 SWAP2 SWAP1 PUSH2 0x126C JUMP JUMPDEST EQ PUSH2 0x142 JUMPI PUSH1 0x0 DUP1 REVERT JUMPDEST PUSH1 0x40 DUP1 MLOAD DUP1 DUP3 ADD SWAP1 SWAP2 MSTORE PUSH1 0x0 DUP1 DUP3 MSTORE PUSH1 0x20 DUP3 ADD DUP2 SWAP1 MSTORE JUMPDEST DUP7 MLOAD DUP2 LT ISZERO PUSH2 0x1F0 JUMPI DUP4 DUP8 DUP3 DUP2 MLOAD DUP2 LT PUSH2 0x175 JUMPI PUSH2 0x175 PUSH2 0x1225 JUMP JUMPDEST PUSH1 0x20 MUL PUSH1 0x20 ADD ADD MLOAD LT PUSH2 0x187 JUMPI PUSH1 0x0 DUP1 REVERT JUMPDEST PUSH2 0x1DC DUP3 PUSH2 0x1D7 DUP6 PUSH1 0x80 ADD MLOAD DUP5 PUSH1 0x1 PUSH2 0x1A0 SWAP2 SWAP1 PUSH2 0x126C JUMP JUMPDEST DUP2 MLOAD DUP2 LT PUSH2 0x1B0 JUMPI PUSH2 0x1B0 PUSH2 0x1225 JUMP JUMPDEST PUSH1 0x20 MUL PUSH1 0x20 ADD ADD MLOAD DUP11 DUP6 DUP2 MLOAD DUP2 LT PUSH2 0x1CA JUMPI PUSH2 0x1CA PUSH2 0x1225 JUMP JUMPDEST PUSH1 0x20 MUL PUSH1 0x20 ADD ADD MLOAD PUSH2 0x956 JUMP JUMPDEST PUSH2 0x9BA JUMP JUMPDEST SWAP2 POP DUP1 PUSH2 0x1E8 DUP2 PUSH2 0x1251 JUMP JUMPDEST SWAP2 POP POP PUSH2 0x159 JUMP JUMPDEST POP PUSH2 0x219 DUP2 DUP4 PUSH1 0x80 ADD MLOAD PUSH1 0x0 DUP2 MLOAD DUP2 LT PUSH2 0x20C JUMPI PUSH2 0x20C PUSH2 0x1225 JUMP JUMPDEST PUSH1 0x20 MUL PUSH1 0x20 ADD ADD MLOAD PUSH2 0x9BA JUMP JUMPDEST SWAP1 POP PUSH2 0x25D DUP6 PUSH1 0x0 ADD MLOAD DUP7 PUSH1 0x20 ADD MLOAD PUSH2 0x231 DUP5 PUSH2 0xA14 JUMP JUMPDEST DUP6 PUSH1 0x40 ADD MLOAD PUSH2 0x243 DUP11 PUSH1 0x40 ADD MLOAD PUSH2 0xA14 JUMP JUMPDEST PUSH1 0x60 DUP9 ADD MLOAD DUP9 MLOAD PUSH2 0x253 SWAP1 PUSH2 0xA14 JUMP JUMPDEST DUP10 PUSH1 0x20 ADD MLOAD PUSH2 0xAB3 JUMP JUMPDEST PUSH2 0x26D JUMPI PUSH1 0x1 SWAP4 POP POP POP POP PUSH2 0xF0 JUMP JUMPDEST POP PUSH1 0x0 SWAP6 SWAP5 POP POP POP POP POP JUMP JUMPDEST PUSH2 0x281 PUSH2 0xF1E JUMP JUMPDEST PUSH1 0x40 DUP1 MLOAD DUP1 DUP3 ADD DUP3 MSTORE PUSH32 0x6F6A9234F37B768ED85404CB0E1545CE3F74AB4F6AC123F0195C7EE888DCDEE DUP2 MSTORE PUSH32 0x2547046E40CDB7225EFACF433452EEE46703BD7B34D615AD0AEBFA6A2B8F2E97 PUSH1 0x20 DUP1 DUP4 ADD SWAP2 SWAP1 SWAP2 MSTORE SWAP1 DUP4 MSTORE DUP2 MLOAD PUSH1 0x80 DUP1 DUP3 ADD DUP5 MSTORE PUSH32 0x17DB565CFC86ADAAEDB90E183BB9DE4978F9AC2CC25317899DF2B76FCB26B5C3 DUP3 DUP6 ADD SWAP1 DUP2 MSTORE PUSH32 0x26932B0217D1919CDCCD0509E9EBEB8C2E62EAA646FF3EAEE8CB337255198C98 PUSH1 0x60 DUP1 DUP6 ADD SWAP2 SWAP1 SWAP2 MSTORE SWAP1 DUP4 MSTORE DUP5 MLOAD DUP1 DUP7 ADD DUP7 MSTORE PUSH32 0x28B5996E4439774FAE5EEDF820A7648C8E4A762EA907C5411EC4A5CBFD104B77 DUP2 MSTORE PUSH32 0x2121442A2453A1D927B4493A42C06528B72908731D39F13A865D54A0803769DC DUP2 DUP7 ADD MSTORE DUP4 DUP6 ADD MSTORE DUP6 DUP5 ADD SWAP3 SWAP1 SWAP3 MSTORE DUP4 MLOAD DUP1 DUP3 ADD DUP6 MSTORE PUSH32 0x1E5505A4E704260E7051AD2CC6FD538BBF5020AC66824641AF5EE05FB19D78FE DUP2 DUP7 ADD SWAP1 DUP2 MSTORE PUSH32 0x2E2ED78451D277C6B52A9E02F745990123EB529028E637C3ACAFC23E16CF0E1D DUP3 DUP6 ADD MSTORE DUP2 MSTORE DUP5 MLOAD DUP1 DUP7 ADD DUP7 MSTORE PUSH32 0x2B4CD9BB8751AFAF2F6A46E66AE6F59D9233338766646BA9ED2A7509B4A4220F DUP2 MSTORE PUSH32 0x221ED174C7BE03A5C2E1AC3F220C54DBA4C5AB20B356BAB44EBA1D5482D8A792 DUP2 DUP7 ADD MSTORE DUP2 DUP6 ADD MSTORE DUP6 DUP6 ADD MSTORE DUP4 MLOAD SWAP1 DUP2 ADD DUP5 MSTORE PUSH32 0x2CA48BA98112207B2034004925F442E2B03426D99B72C22A861E9E7AA66D7CCF DUP2 DUP6 ADD SWAP1 DUP2 MSTORE PUSH32 0x1293639FF81E8A13CCFCA65F99D2CF1D8C211F05C8B2092D971B5B0DBB520C4 DUP3 DUP5 ADD MSTORE DUP2 MSTORE DUP4 MLOAD DUP1 DUP6 ADD DUP6 MSTORE PUSH32 0x15AE9A012EE94D8D19170FAA2973336C8A32E978919B114C1C416117CCBC2C24 DUP2 MSTORE PUSH32 0x73F7BDED8EC941D931E559D46E32064BEFD8506274F491DC33F09A4AD27DC68 DUP2 DUP6 ADD MSTORE DUP2 DUP5 ADD MSTORE SWAP1 DUP5 ADD MSTORE DUP2 MLOAD PUSH1 0x9 DUP1 DUP3 MSTORE PUSH2 0x140 DUP3 ADD SWAP1 SWAP4 MSTORE SWAP2 SWAP1 DUP3 ADD JUMPDEST PUSH1 0x40 DUP1 MLOAD DUP1 DUP3 ADD SWAP1 SWAP2 MSTORE PUSH1 0x0 DUP1 DUP3 MSTORE PUSH1 0x20 DUP3 ADD MSTORE DUP2 MSTORE PUSH1 0x20 ADD SWAP1 PUSH1 0x1 SWAP1 SUB SWAP1 DUP2 PUSH2 0x4FD JUMPI POP POP PUSH1 0x80 DUP3 ADD SWAP1 DUP2 MSTORE PUSH1 0x40 DUP1 MLOAD DUP1 DUP3 ADD SWAP1 SWAP2 MSTORE PUSH32 0x7834CEB6AE05574A2E81BA48669CEC245B20310BF971330007FF321377FD27A DUP2 MSTORE PUSH32 0x28DEBDEADC1F38E58516BAEFBA67A91B60C9F86F2CB49A434DE82840CB8CDB7A PUSH1 0x20 DUP3 ADD MSTORE SWAP1 MLOAD DUP1 MLOAD PUSH1 0x0 SWAP1 PUSH2 0x590 JUMPI PUSH2 0x590 PUSH2 0x1225 JUMP JUMPDEST PUSH1 0x20 MUL PUSH1 0x20 ADD ADD DUP2 SWAP1 MSTORE POP PUSH1 0x40 MLOAD DUP1 PUSH1 0x40 ADD PUSH1 0x40 MSTORE DUP1 PUSH32 0x194F7EBFE8A86AE4188E9045FD47F133F93A3A49EEA93D7CC57E2D96FC29BEA9 DUP2 MSTORE PUSH1 0x20 ADD PUSH32 0x2D102A4E456D37365CE5F1A079ACB34D7E35CC60FB428A7E293C36E8882D146 DUP2 MSTORE POP DUP2 PUSH1 0x80 ADD MLOAD PUSH1 0x1 DUP2 MLOAD DUP2 LT PUSH2 0x607 JUMPI PUSH2 0x607 PUSH2 0x1225 JUMP JUMPDEST PUSH1 0x20 MUL PUSH1 0x20 ADD ADD DUP2 SWAP1 MSTORE POP PUSH1 0x40 MLOAD DUP1 PUSH1 0x40 ADD PUSH1 0x40 MSTORE DUP1 PUSH32 0x1594FAA95AC67B59C1961F3EF62E8FBF9949FFCA39A471DDD325633E2A68A313 DUP2 MSTORE PUSH1 0x20 ADD PUSH32 0x1D4AC07D85E3E69B4D647147F5B75B0C1513CD778B09B49EC577F31574ED6C1 DUP2 MSTORE POP DUP2 PUSH1 0x80 ADD MLOAD PUSH1 0x2 DUP2 MLOAD DUP2 LT PUSH2 0x67E JUMPI PUSH2 0x67E PUSH2 0x1225 JUMP JUMPDEST PUSH1 0x20 MUL PUSH1 0x20 ADD ADD DUP2 SWAP1 MSTORE POP PUSH1 0x40 MLOAD DUP1 PUSH1 0x40 ADD PUSH1 0x40 MSTORE DUP1 PUSH32 0xF09986445BB2D34E8B8638BE962994A615AF5B0D07B75561C27D549E7BF2CFA DUP2 MSTORE PUSH1 0x20 ADD PUSH32 0x141A0CDB3ADF0CBFBB11D8EDA48F458DB640AD177F0360B128294B768479F682 DUP2 MSTORE POP DUP2 PUSH1 0x80 ADD MLOAD PUSH1 0x3 DUP2 MLOAD DUP2 LT PUSH2 0x6F5 JUMPI PUSH2 0x6F5 PUSH2 0x1225 JUMP JUMPDEST PUSH1 0x20 MUL PUSH1 0x20 ADD ADD DUP2 SWAP1 MSTORE POP PUSH1 0x40 MLOAD DUP1 PUSH1 0x40 ADD PUSH1 0x40 MSTORE DUP1 PUSH32 0x9CB55C9319CCC4CC148E6F5DA8B1015ADE818216177798C22AF714E8E83A430 DUP2 MSTORE PUSH1 0x20 ADD PUSH32 0x1073C9189F271ABE6CCB93BD67A934D8EAC725371980B01B236571113D5C4696 DUP2 MSTORE POP DUP2 PUSH1 0x80 ADD MLOAD PUSH1 0x4 DUP2 MLOAD DUP2 LT PUSH2 0x76C JUMPI PUSH2 0x76C PUSH2 0x1225 JUMP JUMPDEST PUSH1 0x20 MUL PUSH1 0x20 ADD ADD DUP2 SWAP1 MSTORE POP PUSH1 0x40 MLOAD DUP1 PUSH1 0x40 ADD PUSH1 0x40 MSTORE DUP1 PUSH32 0x2D5AACFD8311B26B8B649D3C879732CECB68AAE180F8C5180A50B55455EEB97A DUP2 MSTORE PUSH1 0x20 ADD PUSH32 0x104CE9133E0AA0D6C87490CC6F63DEEF93119021DE69E4E5CC9C6E1D6564FFE2 DUP2 MSTORE POP DUP2 PUSH1 0x80 ADD MLOAD PUSH1 0x5 DUP2 MLOAD DUP2 LT PUSH2 0x7E3 JUMPI PUSH2 0x7E3 PUSH2 0x1225 JUMP JUMPDEST PUSH1 0x20 MUL PUSH1 0x20 ADD ADD DUP2 SWAP1 MSTORE POP PUSH1 0x40 MLOAD DUP1 PUSH1 0x40 ADD PUSH1 0x40 MSTORE DUP1 PUSH32 0xCA6E9AAA79DFE30B7431D32B766DDB57CA2FB5CB886376D8708D3ED159AB313 DUP2 MSTORE PUSH1 0x20 ADD PUSH32 0x3F384E39CFA0F68A88F7E5CD17641F470163C0729F5725BFBB0E7CCBF73141C DUP2 MSTORE POP DUP2 PUSH1 0x80 ADD MLOAD PUSH1 0x6 DUP2 MLOAD DUP2 LT PUSH2 0x85A JUMPI PUSH2 0x85A PUSH2 0x1225 JUMP JUMPDEST PUSH1 0x20 MUL PUSH1 0x20 ADD ADD DUP2 SWAP1 MSTORE POP PUSH1 0x40 MLOAD DUP1 PUSH1 0x40 ADD PUSH1 0x40 MSTORE DUP1 PUSH32 0x131074B4D6F338451859165DE81ED0E2DC4C6D985BF54940AF13B3A258A0010F DUP2 MSTORE PUSH1 0x20 ADD PUSH32 0x1798EDD77563F61521CE0AA7C3C77C605C1C646126983A249088424E29270B4C DUP2 MSTORE POP DUP2 PUSH1 0x80 ADD MLOAD PUSH1 0x7 DUP2 MLOAD DUP2 LT PUSH2 0x8D1 JUMPI PUSH2 0x8D1 PUSH2 0x1225 JUMP JUMPDEST PUSH1 0x20 MUL PUSH1 0x20 ADD ADD DUP2 SWAP1 MSTORE POP PUSH1 0x40 MLOAD DUP1 PUSH1 0x40 ADD PUSH1 0x40 MSTORE DUP1 PUSH32 0x2BA65D1FC956FA23B052321B437122CEF3F0B893CD5B07E40348C410146B52EA DUP2 MSTORE PUSH1 0x20 ADD PUSH32 0x16F3FD9B943B6B559727C3D1404E828A3F50444F4013B307127643646EE00D4F DUP2 MSTORE POP DUP2 PUSH1 0x80 ADD MLOAD PUSH1 0x8 DUP2 MLOAD DUP2 LT PUSH2 0x948 JUMPI PUSH2 0x948 PUSH2 0x1225 JUMP JUMPDEST PUSH1 0x20 MUL PUSH1 0x20 ADD ADD DUP2 SWAP1 MSTORE POP SWAP1 JUMP JUMPDEST PUSH1 0x40 DUP1 MLOAD DUP1 DUP3 ADD SWAP1 SWAP2 MSTORE PUSH1 0x0 DUP1 DUP3 MSTORE PUSH1 0x20 DUP3 ADD MSTORE PUSH2 0x972 PUSH2 0xF6F JUMP JUMPDEST DUP4 MLOAD DUP2 MSTORE PUSH1 0x20 DUP1 DUP6 ADD MLOAD SWAP1 DUP3 ADD MSTORE PUSH1 0x40 DUP2 ADD DUP4 SWAP1 MSTORE PUSH1 0x0 PUSH1 0x60 DUP4 PUSH1 0x80 DUP5 PUSH1 0x7 PUSH2 0x7D0 GAS SUB STATICCALL SWAP1 POP DUP1 DUP1 ISZERO PUSH2 0x9A5 JUMPI PUSH2 0x9A7 JUMP JUMPDEST INVALID JUMPDEST POP DUP1 PUSH2 0x9B2 JUMPI PUSH1 0x0 DUP1 REVERT JUMPDEST POP POP SWAP3 SWAP2 POP POP JUMP JUMPDEST PUSH1 0x40 DUP1 MLOAD DUP1 DUP3 ADD SWAP1 SWAP2 MSTORE PUSH1 0x0 DUP1 DUP3 MSTORE PUSH1 0x20 DUP3 ADD MSTORE PUSH2 0x9D6 PUSH2 0xF8D JUMP JUMPDEST DUP4 MLOAD DUP2 MSTORE PUSH1 0x20 DUP1 DUP6 ADD MLOAD DUP2 DUP4 ADD MSTORE DUP4 MLOAD PUSH1 0x40 DUP4 ADD MSTORE DUP4 ADD MLOAD PUSH1 0x60 DUP1 DUP4 ADD SWAP2 SWAP1 SWAP2 MSTORE PUSH1 0x0 SWAP1 DUP4 PUSH1 0xC0 DUP5 PUSH1 0x6 PUSH2 0x7D0 GAS SUB STATICCALL SWAP1 POP DUP1 DUP1 ISZERO PUSH2 0x9A5 JUMPI PUSH2 0x9A7 JUMP JUMPDEST PUSH1 0x40 DUP1 MLOAD DUP1 DUP3 ADD SWAP1 SWAP2 MSTORE PUSH1 0x0 DUP1 DUP3 MSTORE PUSH1 0x20 DUP3 ADD MSTORE DUP2 MLOAD PUSH32 0x30644E72E131A029B85045B68181585D97816A916871CA8D3C208C16D87CFD47 SWAP1 ISZERO DUP1 ISZERO PUSH2 0xA5B JUMPI POP PUSH1 0x20 DUP4 ADD MLOAD ISZERO JUMPDEST ISZERO PUSH2 0xA7B JUMPI POP POP PUSH1 0x40 DUP1 MLOAD DUP1 DUP3 ADD SWAP1 SWAP2 MSTORE PUSH1 0x0 DUP1 DUP3 MSTORE PUSH1 0x20 DUP3 ADD MSTORE SWAP2 SWAP1 POP JUMP JUMPDEST PUSH1 0x40 MLOAD DUP1 PUSH1 0x40 ADD PUSH1 0x40 MSTORE DUP1 DUP5 PUSH1 0x0 ADD MLOAD DUP2 MSTORE PUSH1 0x20 ADD DUP3 DUP6 PUSH1 0x20 ADD MLOAD PUSH2 0xAA0 SWAP2 SWAP1 PUSH2 0x1284 JUMP JUMPDEST PUSH2 0xAAA SWAP1 DUP5 PUSH2 0x12A6 JUMP JUMPDEST SWAP1 MSTORE SWAP4 SWAP3 POP POP POP JUMP JUMPDEST PUSH1 0x40 DUP1 MLOAD PUSH1 0x4 DUP1 DUP3 MSTORE PUSH1 0xA0 DUP3 ADD SWAP1 SWAP3 MSTORE PUSH1 0x0 SWAP2 DUP3 SWAP2 SWAP1 DUP2 PUSH1 0x20 ADD JUMPDEST PUSH1 0x40 DUP1 MLOAD DUP1 DUP3 ADD SWAP1 SWAP2 MSTORE PUSH1 0x0 DUP1 DUP3 MSTORE PUSH1 0x20 DUP3 ADD MSTORE DUP2 MSTORE PUSH1 0x20 ADD SWAP1 PUSH1 0x1 SWAP1 SUB SWAP1 DUP2 PUSH2 0xACE JUMPI POP POP PUSH1 0x40 DUP1 MLOAD PUSH1 0x4 DUP1 DUP3 MSTORE PUSH1 0xA0 DUP3 ADD SWAP1 SWAP3 MSTORE SWAP2 SWAP3 POP PUSH1 0x0 SWAP2 SWAP1 PUSH1 0x20 DUP3 ADD JUMPDEST PUSH2 0xB18 PUSH2 0xFAB JUMP JUMPDEST DUP2 MSTORE PUSH1 0x20 ADD SWAP1 PUSH1 0x1 SWAP1 SUB SWAP1 DUP2 PUSH2 0xB10 JUMPI SWAP1 POP POP SWAP1 POP DUP11 DUP3 PUSH1 0x0 DUP2 MLOAD DUP2 LT PUSH2 0xB41 JUMPI PUSH2 0xB41 PUSH2 0x1225 JUMP JUMPDEST PUSH1 0x20 MUL PUSH1 0x20 ADD ADD DUP2 SWAP1 MSTORE POP DUP9 DUP3 PUSH1 0x1 DUP2 MLOAD DUP2 LT PUSH2 0xB60 JUMPI PUSH2 0xB60 PUSH2 0x1225 JUMP JUMPDEST PUSH1 0x20 MUL PUSH1 0x20 ADD ADD DUP2 SWAP1 MSTORE POP DUP7 DUP3 PUSH1 0x2 DUP2 MLOAD DUP2 LT PUSH2 0xB7F JUMPI PUSH2 0xB7F PUSH2 0x1225 JUMP JUMPDEST PUSH1 0x20 MUL PUSH1 0x20 ADD ADD DUP2 SWAP1 MSTORE POP DUP5 DUP3 PUSH1 0x3 DUP2 MLOAD DUP2 LT PUSH2 0xB9E JUMPI PUSH2 0xB9E PUSH2 0x1225 JUMP JUMPDEST PUSH1 0x20 MUL PUSH1 0x20 ADD ADD DUP2 SWAP1 MSTORE POP DUP10 DUP2 PUSH1 0x0 DUP2 MLOAD DUP2 LT PUSH2 0xBBD JUMPI PUSH2 0xBBD PUSH2 0x1225 JUMP JUMPDEST PUSH1 0x20 MUL PUSH1 0x20 ADD ADD DUP2 SWAP1 MSTORE POP DUP8 DUP2 PUSH1 0x1 DUP2 MLOAD DUP2 LT PUSH2 0xBDC JUMPI PUSH2 0xBDC PUSH2 0x1225 JUMP JUMPDEST PUSH1 0x20 MUL PUSH1 0x20 ADD ADD DUP2 SWAP1 MSTORE POP DUP6 DUP2 PUSH1 0x2 DUP2 MLOAD DUP2 LT PUSH2 0xBFB JUMPI PUSH2 0xBFB PUSH2 0x1225 JUMP JUMPDEST PUSH1 0x20 MUL PUSH1 0x20 ADD ADD DUP2 SWAP1 MSTORE POP DUP4 DUP2 PUSH1 0x3 DUP2 MLOAD DUP2 LT PUSH2 0xC1A JUMPI PUSH2 0xC1A PUSH2 0x1225 JUMP JUMPDEST PUSH1 0x20 MUL PUSH1 0x20 ADD ADD DUP2 SWAP1 MSTORE POP PUSH2 0xC2F DUP3 DUP3 PUSH2 0xC3E JUMP JUMPDEST SWAP12 SWAP11 POP POP POP POP POP POP POP POP POP POP POP JUMP JUMPDEST PUSH1 0x0 DUP2 MLOAD DUP4 MLOAD EQ PUSH2 0xC4E JUMPI PUSH1 0x0 DUP1 REVERT JUMPDEST DUP3 MLOAD PUSH1 0x0 PUSH2 0xC5D DUP3 PUSH1 0x6 PUSH2 0x12BD JUMP JUMPDEST SWAP1 POP PUSH1 0x0 DUP2 PUSH8 0xFFFFFFFFFFFFFFFF DUP2 GT ISZERO PUSH2 0xC7A JUMPI PUSH2 0xC7A PUSH2 0x100C JUMP JUMPDEST PUSH1 0x40 MLOAD SWAP1 DUP1 DUP3 MSTORE DUP1 PUSH1 0x20 MUL PUSH1 0x20 ADD DUP3 ADD PUSH1 0x40 MSTORE DUP1 ISZERO PUSH2 0xCA3 JUMPI DUP2 PUSH1 0x20 ADD PUSH1 0x20 DUP3 MUL DUP1 CALLDATASIZE DUP4 CALLDATACOPY ADD SWAP1 POP JUMPDEST POP SWAP1 POP PUSH1 0x0 JUMPDEST DUP4 DUP2 LT ISZERO PUSH2 0xEDE JUMPI DUP7 DUP2 DUP2 MLOAD DUP2 LT PUSH2 0xCC3 JUMPI PUSH2 0xCC3 PUSH2 0x1225 JUMP JUMPDEST PUSH1 0x20 MUL PUSH1 0x20 ADD ADD MLOAD PUSH1 0x0 ADD MLOAD DUP3 DUP3 PUSH1 0x6 PUSH2 0xCDD SWAP2 SWAP1 PUSH2 0x12BD JUMP JUMPDEST PUSH2 0xCE8 SWAP1 PUSH1 0x0 PUSH2 0x126C JUMP JUMPDEST DUP2 MLOAD DUP2 LT PUSH2 0xCF8 JUMPI PUSH2 0xCF8 PUSH2 0x1225 JUMP JUMPDEST PUSH1 0x20 MUL PUSH1 0x20 ADD ADD DUP2 DUP2 MSTORE POP POP DUP7 DUP2 DUP2 MLOAD DUP2 LT PUSH2 0xD16 JUMPI PUSH2 0xD16 PUSH2 0x1225 JUMP JUMPDEST PUSH1 0x20 MUL PUSH1 0x20 ADD ADD MLOAD PUSH1 0x20 ADD MLOAD DUP3 DUP3 PUSH1 0x6 PUSH2 0xD30 SWAP2 SWAP1 PUSH2 0x12BD JUMP JUMPDEST PUSH2 0xD3B SWAP1 PUSH1 0x1 PUSH2 0x126C JUMP JUMPDEST DUP2 MLOAD DUP2 LT PUSH2 0xD4B JUMPI PUSH2 0xD4B PUSH2 0x1225 JUMP JUMPDEST PUSH1 0x20 MUL PUSH1 0x20 ADD ADD DUP2 DUP2 MSTORE POP POP DUP6 DUP2 DUP2 MLOAD DUP2 LT PUSH2 0xD69 JUMPI PUSH2 0xD69 PUSH2 0x1225 JUMP JUMPDEST PUSH1 0x20 SWAP1 DUP2 MUL SWAP2 SWAP1 SWAP2 ADD DUP2 ADD MLOAD MLOAD ADD MLOAD DUP3 PUSH2 0xD84 DUP4 PUSH1 0x6 PUSH2 0x12BD JUMP JUMPDEST PUSH2 0xD8F SWAP1 PUSH1 0x2 PUSH2 0x126C JUMP JUMPDEST DUP2 MLOAD DUP2 LT PUSH2 0xD9F JUMPI PUSH2 0xD9F PUSH2 0x1225 JUMP JUMPDEST PUSH1 0x20 MUL PUSH1 0x20 ADD ADD DUP2 DUP2 MSTORE POP POP DUP6 DUP2 DUP2 MLOAD DUP2 LT PUSH2 0xDBD JUMPI PUSH2 0xDBD PUSH2 0x1225 JUMP JUMPDEST PUSH1 0x20 SWAP1 DUP2 MUL SWAP2 SWAP1 SWAP2 ADD ADD MLOAD MLOAD MLOAD DUP3 PUSH2 0xDD6 DUP4 PUSH1 0x6 PUSH2 0x12BD JUMP JUMPDEST PUSH2 0xDE1 SWAP1 PUSH1 0x3 PUSH2 0x126C JUMP JUMPDEST DUP2 MLOAD DUP2 LT PUSH2 0xDF1 JUMPI PUSH2 0xDF1 PUSH2 0x1225 JUMP JUMPDEST PUSH1 0x20 MUL PUSH1 0x20 ADD ADD DUP2 DUP2 MSTORE POP POP DUP6 DUP2 DUP2 MLOAD DUP2 LT PUSH2 0xE0F JUMPI PUSH2 0xE0F PUSH2 0x1225 JUMP JUMPDEST PUSH1 0x20 MUL PUSH1 0x20 ADD ADD MLOAD PUSH1 0x20 ADD MLOAD PUSH1 0x1 PUSH1 0x2 DUP2 LT PUSH2 0xE2D JUMPI PUSH2 0xE2D PUSH2 0x1225 JUMP JUMPDEST PUSH1 0x20 MUL ADD MLOAD DUP3 PUSH2 0xE3E DUP4 PUSH1 0x6 PUSH2 0x12BD JUMP JUMPDEST PUSH2 0xE49 SWAP1 PUSH1 0x4 PUSH2 0x126C JUMP JUMPDEST DUP2 MLOAD DUP2 LT PUSH2 0xE59 JUMPI PUSH2 0xE59 PUSH2 0x1225 JUMP JUMPDEST PUSH1 0x20 MUL PUSH1 0x20 ADD ADD DUP2 DUP2 MSTORE POP POP DUP6 DUP2 DUP2 MLOAD DUP2 LT PUSH2 0xE77 JUMPI PUSH2 0xE77 PUSH2 0x1225 JUMP JUMPDEST PUSH1 0x20 MUL PUSH1 0x20 ADD ADD MLOAD PUSH1 0x20 ADD MLOAD PUSH1 0x0 PUSH1 0x2 DUP2 LT PUSH2 0xE95 JUMPI PUSH2 0xE95 PUSH2 0x1225 JUMP JUMPDEST PUSH1 0x20 MUL ADD MLOAD DUP3 PUSH2 0xEA6 DUP4 PUSH1 0x6 PUSH2 0x12BD JUMP JUMPDEST PUSH2 0xEB1 SWAP1 PUSH1 0x5 PUSH2 0x126C JUMP JUMPDEST DUP2 MLOAD DUP2 LT PUSH2 0xEC1 JUMPI PUSH2 0xEC1 PUSH2 0x1225 JUMP JUMPDEST PUSH1 0x20 SWAP1 DUP2 MUL SWAP2 SWAP1 SWAP2 ADD ADD MSTORE DUP1 PUSH2 0xED6 DUP2 PUSH2 0x1251 JUMP JUMPDEST SWAP2 POP POP PUSH2 0xCA9 JUMP JUMPDEST POP PUSH2 0xEE7 PUSH2 0xFD0 JUMP JUMPDEST PUSH1 0x0 PUSH1 0x20 DUP3 PUSH1 0x20 DUP7 MUL PUSH1 0x20 DUP7 ADD PUSH1 0x8 PUSH2 0x7D0 GAS SUB STATICCALL SWAP1 POP DUP1 DUP1 ISZERO PUSH2 0x9A5 JUMPI POP DUP1 PUSH2 0xF10 JUMPI PUSH1 0x0 DUP1 REVERT JUMPDEST POP MLOAD ISZERO ISZERO SWAP7 SWAP6 POP POP POP POP POP POP JUMP JUMPDEST PUSH1 0x40 DUP1 MLOAD PUSH1 0xE0 DUP2 ADD SWAP1 SWAP2 MSTORE PUSH1 0x0 PUSH1 0xA0 DUP3 ADD DUP2 DUP2 MSTORE PUSH1 0xC0 DUP4 ADD SWAP2 SWAP1 SWAP2 MSTORE DUP2 MSTORE PUSH1 0x20 DUP2 ADD PUSH2 0xF48 PUSH2 0xFAB JUMP JUMPDEST DUP2 MSTORE PUSH1 0x20 ADD PUSH2 0xF55 PUSH2 0xFAB JUMP JUMPDEST DUP2 MSTORE PUSH1 0x20 ADD PUSH2 0xF62 PUSH2 0xFAB JUMP JUMPDEST DUP2 MSTORE PUSH1 0x20 ADD PUSH1 0x60 DUP2 MSTORE POP SWAP1 JUMP JUMPDEST PUSH1 0x40 MLOAD DUP1 PUSH1 0x60 ADD PUSH1 0x40 MSTORE DUP1 PUSH1 0x3 SWAP1 PUSH1 0x20 DUP3 MUL DUP1 CALLDATASIZE DUP4 CALLDATACOPY POP SWAP2 SWAP3 SWAP2 POP POP JUMP JUMPDEST PUSH1 0x40 MLOAD DUP1 PUSH1 0x80 ADD PUSH1 0x40 MSTORE DUP1 PUSH1 0x4 SWAP1 PUSH1 0x20 DUP3 MUL DUP1 CALLDATASIZE DUP4 CALLDATACOPY POP SWAP2 SWAP3 SWAP2 POP POP JUMP JUMPDEST PUSH1 0x40 MLOAD DUP1 PUSH1 0x40 ADD PUSH1 0x40 MSTORE DUP1 PUSH2 0xFBE PUSH2 0xFEE JUMP JUMPDEST DUP2 MSTORE PUSH1 0x20 ADD PUSH2 0xFCB PUSH2 0xFEE JUMP JUMPDEST SWAP1 MSTORE SWAP1 JUMP JUMPDEST PUSH1 0x40 MLOAD DUP1 PUSH1 0x20 ADD PUSH1 0x40 MSTORE DUP1 PUSH1 0x1 SWAP1 PUSH1 0x20 DUP3 MUL DUP1 CALLDATASIZE DUP4 CALLDATACOPY POP SWAP2 SWAP3 SWAP2 POP POP JUMP JUMPDEST PUSH1 0x40 MLOAD DUP1 PUSH1 0x40 ADD PUSH1 0x40 MSTORE DUP1 PUSH1 0x2 SWAP1 PUSH1 0x20 DUP3 MUL DUP1 CALLDATASIZE DUP4 CALLDATACOPY POP SWAP2 SWAP3 SWAP2 POP POP JUMP JUMPDEST PUSH4 0x4E487B71 PUSH1 0xE0 SHL PUSH1 0x0 MSTORE PUSH1 0x41 PUSH1 0x4 MSTORE PUSH1 0x24 PUSH1 0x0 REVERT JUMPDEST PUSH1 0x40 MLOAD PUSH1 0x60 DUP2 ADD PUSH8 0xFFFFFFFFFFFFFFFF DUP2 GT DUP3 DUP3 LT OR ISZERO PUSH2 0x1045 JUMPI PUSH2 0x1045 PUSH2 0x100C JUMP JUMPDEST PUSH1 0x40 MSTORE SWAP1 JUMP JUMPDEST PUSH1 0x40 DUP1 MLOAD SWAP1 DUP2 ADD PUSH8 0xFFFFFFFFFFFFFFFF DUP2 GT DUP3 DUP3 LT OR ISZERO PUSH2 0x1045 JUMPI PUSH2 0x1045 PUSH2 0x100C JUMP JUMPDEST PUSH1 0x0 PUSH1 0x40 DUP3 DUP5 SUB SLT ISZERO PUSH2 0x1080 JUMPI PUSH1 0x0 DUP1 REVERT JUMPDEST PUSH1 0x40 MLOAD PUSH1 0x40 DUP2 ADD DUP2 DUP2 LT PUSH8 0xFFFFFFFFFFFFFFFF DUP3 GT OR ISZERO PUSH2 0x10A3 JUMPI PUSH2 0x10A3 PUSH2 0x100C JUMP JUMPDEST PUSH1 0x40 MSTORE DUP3 CALLDATALOAD DUP2 MSTORE PUSH1 0x20 SWAP3 DUP4 ADD CALLDATALOAD SWAP3 DUP2 ADD SWAP3 SWAP1 SWAP3 MSTORE POP SWAP2 SWAP1 POP JUMP JUMPDEST PUSH1 0x0 PUSH1 0x40 MLOAD PUSH2 0x100 DUP1 DUP3 ADD DUP3 DUP2 LT PUSH8 0xFFFFFFFFFFFFFFFF DUP3 GT OR ISZERO PUSH2 0x10E4 JUMPI PUSH2 0x10E4 PUSH2 0x100C JUMP JUMPDEST PUSH1 0x40 MSTORE SWAP1 SWAP2 POP DUP2 SWAP1 DUP4 ADD DUP5 DUP2 GT ISZERO PUSH2 0x10FB JUMPI PUSH1 0x0 DUP1 REVERT JUMPDEST DUP4 JUMPDEST DUP2 DUP2 LT ISZERO PUSH2 0x1115 JUMPI DUP1 CALLDATALOAD DUP4 MSTORE PUSH1 0x20 SWAP3 DUP4 ADD SWAP3 ADD PUSH2 0x10FD JUMP JUMPDEST POP POP POP SWAP3 SWAP2 POP POP JUMP JUMPDEST PUSH1 0x0 DUP3 PUSH1 0x1F DUP4 ADD SLT PUSH2 0x112F JUMPI PUSH1 0x0 DUP1 REVERT JUMPDEST PUSH2 0x1137 PUSH2 0x104B JUMP JUMPDEST DUP1 PUSH1 0x40 DUP5 ADD DUP6 DUP2 GT ISZERO PUSH2 0x1149 JUMPI PUSH1 0x0 DUP1 REVERT JUMPDEST DUP5 JUMPDEST DUP2 DUP2 LT ISZERO PUSH2 0x1163 JUMPI DUP1 CALLDATALOAD DUP5 MSTORE PUSH1 0x20 SWAP4 DUP5 ADD SWAP4 ADD PUSH2 0x114B JUMP JUMPDEST POP SWAP1 SWAP6 SWAP5 POP POP POP POP POP JUMP JUMPDEST PUSH1 0x0 DUP1 DUP3 DUP5 SUB PUSH2 0x200 DUP2 SLT ISZERO PUSH2 0x1183 JUMPI PUSH1 0x0 DUP1 REVERT JUMPDEST PUSH2 0x100 DUP1 DUP3 SLT ISZERO PUSH2 0x1193 JUMPI PUSH1 0x0 DUP1 REVERT JUMPDEST PUSH2 0x119B PUSH2 0x1022 JUMP JUMPDEST PUSH2 0x11A5 DUP8 DUP8 PUSH2 0x106E JUMP JUMPDEST DUP2 MSTORE PUSH1 0x80 PUSH1 0x3F NOT DUP5 ADD SLT ISZERO PUSH2 0x11B9 JUMPI PUSH1 0x0 DUP1 REVERT JUMPDEST PUSH2 0x11C1 PUSH2 0x104B JUMP JUMPDEST SWAP3 POP PUSH2 0x11D0 DUP8 PUSH1 0x40 DUP9 ADD PUSH2 0x111E JUMP JUMPDEST DUP4 MSTORE PUSH2 0x11DF DUP8 PUSH1 0x80 DUP9 ADD PUSH2 0x111E JUMP JUMPDEST PUSH1 0x20 DUP5 ADD MSTORE DUP3 PUSH1 0x20 DUP3 ADD MSTORE PUSH2 0x11F7 DUP8 PUSH1 0xC0 DUP9 ADD PUSH2 0x106E JUMP JUMPDEST PUSH1 0x40 DUP3 ADD MSTORE SWAP4 POP PUSH2 0x11F DUP6 ADD DUP7 SGT PUSH2 0x120E JUMPI PUSH1 0x0 DUP1 REVERT JUMPDEST PUSH2 0x121A DUP7 DUP3 DUP8 ADD PUSH2 0x10BD JUMP JUMPDEST SWAP3 POP POP POP SWAP3 POP SWAP3 SWAP1 POP JUMP JUMPDEST PUSH4 0x4E487B71 PUSH1 0xE0 SHL PUSH1 0x0 MSTORE PUSH1 0x32 PUSH1 0x4 MSTORE PUSH1 0x24 PUSH1 0x0 REVERT JUMPDEST PUSH4 0x4E487B71 PUSH1 0xE0 SHL PUSH1 0x0 MSTORE PUSH1 0x11 PUSH1 0x4 MSTORE PUSH1 0x24 PUSH1 0x0 REVERT JUMPDEST PUSH1 0x0 PUSH1 0x0 NOT DUP3 EQ ISZERO PUSH2 0x1265 JUMPI PUSH2 0x1265 PUSH2 0x123B JUMP JUMPDEST POP PUSH1 0x1 ADD SWAP1 JUMP JUMPDEST PUSH1 0x0 DUP3 NOT DUP3 GT ISZERO PUSH2 0x127F JUMPI PUSH2 0x127F PUSH2 0x123B JUMP JUMPDEST POP ADD SWAP1 JUMP JUMPDEST PUSH1 0x0 DUP3 PUSH2 0x12A1 JUMPI PUSH4 0x4E487B71 PUSH1 0xE0 SHL PUSH1 0x0 MSTORE PUSH1 0x12 PUSH1 0x4 MSTORE PUSH1 0x24 PUSH1 0x0 REVERT JUMPDEST POP MOD SWAP1 JUMP JUMPDEST PUSH1 0x0 DUP3 DUP3 LT ISZERO PUSH2 0x12B8 JUMPI PUSH2 0x12B8 PUSH2 0x123B JUMP JUMPDEST POP SUB SWAP1 JUMP JUMPDEST PUSH1 0x0 DUP2 PUSH1 0x0 NOT DIV DUP4 GT DUP3 ISZERO ISZERO AND ISZERO PUSH2 0x12D7 JUMPI PUSH2 0x12D7 PUSH2 0x123B JUMP JUMPDEST POP MUL SWAP1 JUMP INVALID LOG2 PUSH5 0x6970667358 0x22 SLT KECCAK256 0xF DUP3 0xB0 DUP3 0xDD PUSH21 0xDA420E6485AFC0BAFF8248F0FFD98C6DED27B66CF2 0x25 0xCA CALLCODE PUSH26 0xCB64736F6C634300080B00330000000000000000000000000000 ",
  "sha1": "9978748f39f07d81303bbfc891839d8043c2f561",
  "source": "// SPDX-License-Identifier: MIT\n// This file is MIT Licensed.\n//\n// Copyright 2017 Christian Reitwiessner\n// Permission is hereby granted, free of charge, to any person obtaining a copy of this software and associated documentation files (the \"Software\"), to deal in the Software without restriction, including without limitation the rights to use, copy, modify, merge, publish, distribute, sublicense, and/or sell copies of the Software, and to permit persons to whom the Software is furnished to do so, subject to the following conditions:\n// The above copyright notice and this permission notice shall be included in all copies or substantial portions of the Software.\n// THE SOFTWARE IS PROVIDED \"AS IS\", WITHOUT WARRANTY OF ANY KIND, EXPRESS OR IMPLIED, INCLUDING BUT NOT LIMITED TO THE WARRANTIES OF MERCHANTABILITY, FITNESS FOR A PARTICULAR PURPOSE AND NONINFRINGEMENT. IN NO EVENT SHALL THE AUTHORS OR COPYRIGHT HOLDERS BE LIABLE FOR ANY CLAIM, DAMAGES OR OTHER LIABILITY, WHETHER IN AN ACTION OF CONTRACT, TORT OR OTHERWISE, ARISING FROM, OUT OF OR IN CONNECTION WITH THE SOFTWARE OR THE USE OR OTHER DEALINGS IN THE SOFTWARE.\npragma solidity ^0.8.0;\nlibrary Pairing {\n    struct G1Point {\n        uint X;\n        uint Y;\n    }\n    // Encoding of field elements is: X[0] * z + X[1]\n    struct G2Point {\n        uint[2] X;\n        uint[2] Y;\n    }\n    /// @return the generator of G1\n    function P1() pure internal returns (G1Point memory) {\n        return G1Point(1, 2);\n    }\n    /// @return the generator of G2\n    function P2() pure internal returns (G2Point memory) {\n        return G2Point(\n            [10857046999023057135944570762232829481370756359578518086990519993285655852781,\n             11559732032986387107991004021392285783925812861821192530917403151452391805634],\n            [8495653923123431417604973247489272438418190587263600148770280649306958101930,\n             4082367875863433681332203403145435568316851327593401208105741076214120093531]\n        );\n    }\n    /// @return the negation of p, i.e. p.addition(p.negate()) should be zero.\n    function negate(G1Point memory p) pure internal returns (G1Point memory) {\n        // The prime q in the base field F_q for G1\n        uint q = 21888242871839275222246405745257275088696311157297823662689037894645226208583;\n        if (p.X == 0 && p.Y == 0)\n            return G1Point(0, 0);\n        return G1Point(p.X, q - (p.Y % q));\n    }\n    /// @return r the sum of two points of G1\n    function addition(G1Point memory p1, G1Point memory p2) internal view returns (G1Point memory r) {\n        uint[4] memory input;\n        input[0] = p1.X;\n        input[1] = p1.Y;\n        input[2] = p2.X;\n        input[3] = p2.Y;\n        bool success;\n        assembly {\n            success := staticcall(sub(gas(), 2000), 6, input, 0xc0, r, 0x60)\n            // Use \"invalid\" to make gas estimation work\n            switch success case 0 { invalid() }\n        }\n        require(success);\n    }\n\n\n    /// @return r the product of a point on G1 and a scalar, i.e.\n    /// p == p.scalar_mul(1) and p.addition(p) == p.scalar_mul(2) for all points p.\n    function scalar_mul(G1Point memory p, uint s) internal view returns (G1Point memory r) {\n        uint[3] memory input;\n        input[0] = p.X;\n        input[1] = p.Y;\n        input[2] = s;\n        bool success;\n        assembly {\n            success := staticcall(sub(gas(), 2000), 7, input, 0x80, r, 0x60)\n            // Use \"invalid\" to make gas estimation work\n            switch success case 0 { invalid() }\n        }\n        require (success);\n    }\n    /// @return the result of computing the pairing check\n    /// e(p1[0], p2[0]) *  .... * e(p1[n], p2[n]) == 1\n    /// For example pairing([P1(), P1().negate()], [P2(), P2()]) should\n    /// return true.\n    function pairing(G1Point[] memory p1, G2Point[] memory p2) internal view returns (bool) {\n        require(p1.length == p2.length);\n        uint elements = p1.length;\n        uint inputSize = elements * 6;\n        uint[] memory input = new uint[](inputSize);\n        for (uint i = 0; i < elements; i++)\n        {\n            input[i * 6 + 0] = p1[i].X;\n            input[i * 6 + 1] = p1[i].Y;\n            input[i * 6 + 2] = p2[i].X[1];\n            input[i * 6 + 3] = p2[i].X[0];\n            input[i * 6 + 4] = p2[i].Y[1];\n            input[i * 6 + 5] = p2[i].Y[0];\n        }\n        uint[1] memory out;\n        bool success;\n        assembly {\n            success := staticcall(sub(gas(), 2000), 8, add(input, 0x20), mul(inputSize, 0x20), out, 0x20)\n            // Use \"invalid\" to make gas estimation work\n            switch success case 0 { invalid() }\n        }\n        require(success);\n        return out[0] != 0;\n    }\n    /// Convenience method for a pairing check for two pairs.\n    function pairingProd2(G1Point memory a1, G2Point memory a2, G1Point memory b1, G2Point memory b2) internal view returns (bool) {\n        G1Point[] memory p1 = new G1Point[](2);\n        G2Point[] memory p2 = new G2Point[](2);\n        p1[0] = a1;\n        p1[1] = b1;\n        p2[0] = a2;\n        p2[1] = b2;\n        return pairing(p1, p2);\n    }\n    /// Convenience method for a pairing check for three pairs.\n    function pairingProd3(\n            G1Point memory a1, G2Point memory a2,\n            G1Point memory b1, G2Point memory b2,\n            G1Point memory c1, G2Point memory c2\n    ) internal view returns (bool) {\n        G1Point[] memory p1 = new G1Point[](3);\n        G2Point[] memory p2 = new G2Point[](3);\n        p1[0] = a1;\n        p1[1] = b1;\n        p1[2] = c1;\n        p2[0] = a2;\n        p2[1] = b2;\n        p2[2] = c2;\n        return pairing(p1, p2);\n    }\n    /// Convenience method for a pairing check for four pairs.\n    function pairingProd4(\n            G1Point memory a1, G2Point memory a2,\n            G1Point memory b1, G2Point memory b2,\n            G1Point memory c1, G2Point memory c2,\n            G1Point memory d1, G2Point memory d2\n    ) internal view returns (bool) {\n        G1Point[] memory p1 = new G1Point[](4);\n        G2Point[] memory p2 = new G2Point[](4);\n        p1[0] = a1;\n        p1[1] = b1;\n        p1[2] = c1;\n        p1[3] = d1;\n        p2[0] = a2;\n        p2[1] = b2;\n        p2[2] = c2;\n        p2[3] = d2;\n        return pairing(p1, p2);\n    }\n}\n\ncontract Verifier {\n    //using Pairing for *;\n    struct VerifyingKey {\n        Pairing.G1Point alpha;\n        Pairing.G2Point beta;\n        Pairing.G2Point gamma;\n        Pairing.G2Point delta;\n        Pairing.G1Point[] gamma_abc;\n    }\n    struct Proof {\n        Pairing.G1Point a;\n        Pairing.G2Point b;\n        Pairing.G1Point c;\n    }\n    function verifyingKey() pure internal returns (VerifyingKey memory vk) {\n        vk.alpha = Pairing.G1Point(uint256(0x06f6a9234f37b768ed85404cb0e1545ce3f74ab4f6ac123f0195c7ee888dcdee), uint256(0x2547046e40cdb7225efacf433452eee46703bd7b34d615ad0aebfa6a2b8f2e97));\n        vk.beta = Pairing.G2Point([uint256(0x17db565cfc86adaaedb90e183bb9de4978f9ac2cc25317899df2b76fcb26b5c3), uint256(0x26932b0217d1919cdccd0509e9ebeb8c2e62eaa646ff3eaee8cb337255198c98)], [uint256(0x28b5996e4439774fae5eedf820a7648c8e4a762ea907c5411ec4a5cbfd104b77), uint256(0x2121442a2453a1d927b4493a42c06528b72908731d39f13a865d54a0803769dc)]);\n        vk.gamma = Pairing.G2Point([uint256(0x1e5505a4e704260e7051ad2cc6fd538bbf5020ac66824641af5ee05fb19d78fe), uint256(0x2e2ed78451d277c6b52a9e02f745990123eb529028e637c3acafc23e16cf0e1d)], [uint256(0x2b4cd9bb8751afaf2f6a46e66ae6f59d9233338766646ba9ed2a7509b4a4220f), uint256(0x221ed174c7be03a5c2e1ac3f220c54dba4c5ab20b356bab44eba1d5482d8a792)]);\n        vk.delta = Pairing.G2Point([uint256(0x2ca48ba98112207b2034004925f442e2b03426d99b72c22a861e9e7aa66d7ccf), uint256(0x01293639ff81e8a13ccfca65f99d2cf1d8c211f05c8b2092d971b5b0dbb520c4)], [uint256(0x15ae9a012ee94d8d19170faa2973336c8a32e978919b114c1c416117ccbc2c24), uint256(0x073f7bded8ec941d931e559d46e32064befd8506274f491dc33f09a4ad27dc68)]);\n        vk.gamma_abc = new Pairing.G1Point[](9);\n        vk.gamma_abc[0] = Pairing.G1Point(uint256(0x07834ceb6ae05574a2e81ba48669cec245b20310bf971330007ff321377fd27a), uint256(0x28debdeadc1f38e58516baefba67a91b60c9f86f2cb49a434de82840cb8cdb7a));\n        vk.gamma_abc[1] = Pairing.G1Point(uint256(0x194f7ebfe8a86ae4188e9045fd47f133f93a3a49eea93d7cc57e2d96fc29bea9), uint256(0x02d102a4e456d37365ce5f1a079acb34d7e35cc60fb428a7e293c36e8882d146));\n        vk.gamma_abc[2] = Pairing.G1Point(uint256(0x1594faa95ac67b59c1961f3ef62e8fbf9949ffca39a471ddd325633e2a68a313), uint256(0x01d4ac07d85e3e69b4d647147f5b75b0c1513cd778b09b49ec577f31574ed6c1));\n        vk.gamma_abc[3] = Pairing.G1Point(uint256(0x0f09986445bb2d34e8b8638be962994a615af5b0d07b75561c27d549e7bf2cfa), uint256(0x141a0cdb3adf0cbfbb11d8eda48f458db640ad177f0360b128294b768479f682));\n        vk.gamma_abc[4] = Pairing.G1Point(uint256(0x09cb55c9319ccc4cc148e6f5da8b1015ade818216177798c22af714e8e83a430), uint256(0x1073c9189f271abe6ccb93bd67a934d8eac725371980b01b236571113d5c4696));\n        vk.gamma_abc[5] = Pairing.G1Point(uint256(0x2d5aacfd8311b26b8b649d3c879732cecb68aae180f8c5180a50b55455eeb97a), uint256(0x104ce9133e0aa0d6c87490cc6f63deef93119021de69e4e5cc9c6e1d6564ffe2));\n        vk.gamma_abc[6] = Pairing.G1Point(uint256(0x0ca6e9aaa79dfe30b7431d32b766ddb57ca2fb5cb886376d8708d3ed159ab313), uint256(0x03f384e39cfa0f68a88f7e5cd17641f470163c0729f5725bfbb0e7ccbf73141c));\n        vk.gamma_abc[7] = Pairing.G1Point(uint256(0x131074b4d6f338451859165de81ed0e2dc4c6d985bf54940af13b3a258a0010f), uint256(0x1798edd77563f61521ce0aa7c3c77c605c1c646126983a249088424e29270b4c));\n        vk.gamma_abc[8] = Pairing.G1Point(uint256(0x2ba65d1fc956fa23b052321b437122cef3f0b893cd5b07e40348c410146b52ea), uint256(0x16f3fd9b943b6b559727c3d1404e828a3f50444f4013b307127643646ee00d4f));\n    }\n    function verify(uint[] memory input, Proof memory proof) internal view returns (uint) {\n        uint256 snark_scalar_field = 21888242871839275222246405745257275088548364400416034343698204186575808495617;\n        VerifyingKey memory vk = verifyingKey();\n        require(input.length + 1 == vk.gamma_abc.length);\n        // Compute the linear combination vk_x\n        Pairing.G1Point memory vk_x = Pairing.G1Point(0, 0);\n        for (uint i = 0; i < input.length; i++) {\n            require(input[i] < snark_scalar_field);\n            vk_x = Pairing.addition(vk_x, Pairing.scalar_mul(vk.gamma_abc[i + 1], input[i]));\n        }\n        vk_x = Pairing.addition(vk_x, vk.gamma_abc[0]);\n        if(!Pairing.pairingProd4(\n             proof.a, proof.b,\n             Pairing.negate(vk_x), vk.gamma,\n             Pairing.negate(proof.c), vk.delta,\n             Pairing.negate(vk.alpha), vk.beta)) return 1;\n        return 0;\n    }\n    function verifyTx(\n            Proof memory proof, uint[8] memory input\n        ) public view returns (bool r) {\n        uint[] memory inputValues = new uint[](8);\n        \n        for(uint i = 0; i < input.length; i++){\n            inputValues[i] = input[i];\n        }\n        if (verify(inputValues, proof) == 0) {\n            return true;\n        } else {\n            return false;\n        }\n    }\n}",
  "sourcePath": "contracts/Verifier.sol",
  "type": "contract"
}